:020000040800F2
:10000000C8E201205902000841160008391600080C
:100010003D160008310400087519000800000000B2
:10002000000000000000000000000000B5160008FD
:100030003504000800000000B11600080D17000884
:1000400073020008730200087302000873020008BC
:1000500073020008730200087302000873020008AC
:10006000730200087302000873020008730200089C
:10007000730200087302000873020008730200088C
:10008000730200087302000873020008730200087C
:10009000730200087302000873020008730200086C
:1000A000730200087302000873020008730200085C
:1000B0007302000889170008730200087302000821
:1000C000730200087302000873020008730200083C
:1000D000730200087302000873020008730200082C
:1000E000730200087302000873020008730200081C
:1000F000730200087302000873020008730200080C
:1001000073020008730200087302000873020008FB
:1001100073020008730200087302000873020008EB
:1001200073020008730200087302000873020008DB
:1001300073020008730200087302000873020008CB
:1001400073020008730200087302000873020008BB
:1001500073020008730200087302000873020008AB
:10016000730200087302000873020008730200089B
:100170007302000873020008730200080000000008
:10018000730200087302000800F002F800F054F84F
:1001900014A696E8000CB244B344DA4501D100F04D
:1001A0004BF8BAE80F000FA696E83000A5EB04055F
:1001B00004EB0607AAEB0704A7F101074FEA1515A0
:1001C0004FEA3414A4F10104AC4201D300F034F836
:1001D00013F0010F18BFFB1A43F0010300F001F800
:1001E000DBE71847A0220000C0220000103A24BF1D
:1001F00078C878C1FAD8520724BF30C830C144BF8C
:1002000004680C6070470000704700000023002461
:1002100000250026103A28BF78C1FBD8520728BF16
:1002200030C148BF0B6070471FB502F015F900F0F0
:10023000AFF81FBD10B510BD00F0C0F81146FFF7B4
:10024000F3FF02F0FDF800F0DEF803B4FFF7F2FF71
:1002500003BC00F0E5F80000094880470948004762
:10026000FEE7FEE7FEE7FEE7FEE7FEE7FEE7FEE766
:10027000FEE7FEE704480549054A064B70470000C3
:100280001917000889010008C8020020C8E20120EF
:10029000C8620120C862012053EA020C00F06980A4
:1002A0002DE9F04B4FF00006002B1FBFB3FA83F58A
:1002B00003FA05F424FA05F65E4012BF1643B2FABB
:1002C00082F502FA05F4C5F120051EBF22FA05FCED
:1002D00044EA0C04203556EA044C4FEA144418BF93
:1002E000641C4FF000084FF00009904271EB030CC2
:1002F00039D3002919BFB1FA81F701FA07F6B0FA2C
:1003000080F700FA07F6C7F120071EBF20FA07FCA6
:1003100046EA0C062037B6FBF4FCA7EB0507103FB6
:1003200007F01F0BCBF120062CFA06F60CFA0BFB9C
:1003300044BFB3460026202FA4BF5E464FF0000BFB
:100340005BEA060C08BF4FF0010B19EB0B0948EBF9
:100350000608ABFB027C06FB02CC0BFB03CCC01BEC
:1003600071EB0C01C1E70B46024641464846BDE829
:10037000F08B13B5084318BF4FF0FF300146AFF3C1
:100380000080BDE81C407047704770477047000010
:1003900008487CB57844009007487844009C05469E
:1003A000019004E02046016808448047241DAC42C7
:1003B000F8D17CBD0C2100000E210000754600F034
:1003C0002BF8AE4605006946534620F007008546E7
:1003D00018B020B5FFF74EFFBDE820404FF00006F3
:1003E0004FF000074FF000084FF0000BAC46ACE8B0
:1003F000C009ACE8C009ACE8C009ACE8C00921F00C
:1004000007018D46704710B50446AFF300802046C3
:10041000BDE81040FFF719BF0048704710000020EA
:1004200001491820ABBEFEE726000200704700001D
:10043000FFE7FEE77047000080B584B0039000F04E
:1004400011FA0290039801900198013048B1FFE73A
:1004500040F20400C2F200000178019808440190C3
:10046000FFE7FFE700F0FEF90299401A0199884280
:1004700001D2FFE7F6E704B080BD00008EB00D901A
:100480000C9100200A90099008900B90FFE70B98C0
:100490000F2800F2CC81FFE70B99012088400A90D9
:1004A0000C9800680A990840099009980A998842AE
:1004B00040F0B881FFE70C98406800F00300012885
:1004C00007D0FFE70C98406800F0030002282FD106
:1004D000FFE70D98806808900B984100032000FA10
:1004E00001F10898884308900C98C0680B9949005E
:1004F00000FA01F108980843089008980D9988605F
:100500000D98406808900B99012000FA01F10898B5
:10051000884308900C984068C0F300100B9900FACB
:1005200001F108980843089008980D994860FFE782
:100530000C98406800F00300032818D0FFE70D98DE
:10054000C06808900B984100032000FA01F1089858
:10055000884308900C9880680B99490000FA01F1D3
:1005600008980843089008980D99C860FFE70C9810
:10057000406800F00300022826D1FFE70D980B9990
:100580006FF0030202EA51010844006A08900B98D8
:1005900000F0070081000F2000FA01F1089888435D
:1005A00008900C9800690B9901F00701890000FA86
:1005B00001F108980843089008980D990B9B02EAEE
:1005C000530211440862FFE70D98006808900B98E9
:1005D0004100032000FA01F10898884308900C9824
:1005E000406800F003000B99490000FA01F10898F7
:1005F0000843089008980D9908600C988079800746
:10060000002800F00E81FFE7FFE70020079043F687
:100610004400C4F20200016841F4804101600068B6
:1006200000F4804007900798FFE70B9820F0030044
:1006300043F60801C4F20101405808900B9800F0FD
:10064000030081000F2000FA01F108988843089008
:100650000D980021C4F20201884203D1FFE7002077
:1006600006905EE00D9840F20041C4F2020188421B
:1006700003D1FFE70120059050E00D9840F60001FE
:10068000C4F20201884203D1FFE70220049042E055
:100690000D9840F60041C4F20201884203D1FFE701
:1006A0000320039034E00D9841F20001C4F20201EE
:1006B000884203D1FFE70420029026E00D9841F222
:1006C0000041C4F20201884203D1FFE705200190F6
:1006D00018E00D9841F60001C4F20201884203D1EE
:1006E000FFE7062000900AE00D9941F60042C4F2AF
:1006F00002020820914208BF07200090FFE70098FF
:100700000190FFE701980290FFE702980390FFE74E
:1007100003980490FFE704980590FFE7059806907A
:10072000FFE70698C0B20B9901F00301890000FAB7
:1007300001F108980843089008980B9921F00301EB
:1007400043F60802C4F20102885043F60840C4F29E
:1007500001000068089009990898884308900C984F
:100760008079C006002805D5FFE709990898084355
:100770000890FFE7089843F60841C4F201010860B9
:1007800043F60C40C4F201000068089009990898EB
:10079000884308900C9880798006002805D5FFE7EB
:1007A0000999089808430890FFE7089843F60C4118
:1007B000C4F20101086043F60440C4F2010000687D
:1007C000089009990898884308900C9880798007C8
:1007D000002805D5FFE70999089808430890FFE726
:1007E000089843F60441C4F20101086043F6004052
:1007F000C4F201000068089009990898884308909D
:100800000C988079C00728B1FFE709990898084338
:100810000890FFE7089843F60041C4F20101086020
:10082000FFE7FFE7FFE70B9801300B902FE60EB0D4
:100830007047000082B00190ADF802108DF80120E1
:100840009DF8010028B1FFE7BDF802000199886119
:1008500005E0BDF80200000401998861FFE702B0DD
:100860007047000040F2C020C2F2000000687047EC
:1008700040F20400C2F20000027840F2C021C2F24D
:1008800000010868104408607047000080B582B01D
:1008900043F60041C4F20201086840F400700860A9
:1008A000086840F480600860086840F48070086060
:1008B000032000F08DF80020019000F005F800F012
:1008C0003BF8019802B080BD80B582B0009040F244
:1008D0000000C2F20000006840F20401C2F2000110
:1008E0000A784FF47A71B1FBF2F1B0FBF1F000F04D
:1008F0009FFD20B1FFE701208DF8070018E0009868
:100900000F280DD8FFE700994FF0FF30002200F0CC
:1009100045F8009840F20801C2F20001086003E0C7
:1009200001208DF8070003E000208DF80700FFE7A5
:100930009DF8070002B080BD80B582B0032000F0B2
:1009400047F86FF00B0000220192114600F026F8E4
:10095000019A6FF00A00114600F020F8019A6FF03A
:100960000900114600F01AF8019A6FF004001146D0
:1009700000F014F8019A6FF00300114600F00EF831
:10098000019A6FF00100114600F008F8019A4FF04B
:10099000FF30114600F002F802B080BD80B586B08D
:1009A0008DF81700049103920020029001F056FB8D
:1009B00002909DF91700019002980499039A00F0A3
:1009C00041FE0146019801F051FB06B080BD0000D8
:1009D00080B582B00190019801F06AFB02B080BD41
:1009E00080B584B002900191029820B9FFE7012000
:1009F0008DF80F0021E1019843F60041C4F2020195
:100A0000096801F00701884212D9FFE7019943F60E
:100A10000040C4F202000170006800F00700019974
:100A2000884204D0FFE701208DF80F0005E1FFE7C1
:100A300002980078800700282AD5FFE702980078FE
:100A40004007002809D5FFE743F60801C4F2020178
:100A5000086840F4E0500860FFE70298007800075B
:100A6000002809D5FFE743F60801C4F2020108682F
:100A700040F460400860FFE743F60801C4F2020159
:100A8000086820F0F000029A926810430860FFE7BF
:100A900002980078C00700286ED0FFE702984068EF
:100AA000012811D1FFE743F60000C4F202000068FC
:100AB00000F400310020B0EB514F04D1FFE70120DA
:100AC0008DF80F00B9E02CE002984068022805D0AC
:100AD000FFE702984068032811D1FFE743F60000C2
:100AE000C4F20200006800F000710020B0EB516F0A
:100AF00004D1FFE701208DF80F009EE010E043F6DF
:100B00000000C4F20200006800F002010020B0EB17
:100B1000510F04D1FFE701208DF80F008DE0FFE7B2
:100B2000FFE743F60801C4F20201086820F0030061
:100B3000029A526810430860FFF794FE0090FFE7A6
:100B400043F60800C4F20200006800F00C000299AD
:100B50004968B0EB810F0ED0FFE7FFF783FE0099E5
:100B6000401A41F28931884204D3FFE703208DF80F
:100B70000F0062E0E4E7FFE7019843F60041C4F2AA
:100B80000201096801F00701884212D2FFE70199CA
:100B900043F60040C4F202000170006800F0070054
:100BA0000199884204D0FFE701208DF80F0044E04E
:100BB000FFE702980078400700280CD5FFE743F6CE
:100BC0000801C4F20201086820F4E050029AD268D9
:100BD00010430860FFE702980078000700280DD551
:100BE000FFE743F60801C4F20201086820F4604000
:100BF000029A126940EAC2000860FFE700F028F894
:100C000043F60801C4F202010968C9B20A0942F2B6
:100C10007241C0F60001895CC84040F20001C2F296
:100C20000001086040F20800C2F200000068FFF70F
:100C30004BFE00208DF80F00FFE79DF80F0004B079
:100C400080BD000040F20000C2F200000068704762
:100C500080B586B00020059004900390029043F682
:100C60000800C4F20200006800F00C000146019187
:100C700040B1FFE7019804280AD0FFE7019808284F
:100C80000CD04FE042F20040C0F2F40002904FE07E
:100C900047F64000C0F27D10029049E043F60400A0
:100CA000C4F20200016801F03F01059100684002B2
:100CB000002813D5FFE743F60400C4F202000068E1
:100CC000C0F3881047F64001C0F27D11A0FB01017E
:100CD000059A0023FFF7E0FA049012E043F60400BF
:100CE000C4F202000068C0F3881042F20041C0F272
:100CF000F401A0FB0101059A0023FFF7CDFA04904F
:100D0000FFE743F60400C4F20200006800F440313B
:100D1000022000EBD130039004980399B0FBF1F06E
:100D2000029005E042F20040C0F2F4000290FFE7BA
:100D3000029806B080BD000080B586B0049004988B
:100D400020B9FFE701208DF8170050E304980078E0
:100D5000C007002800F0A580FFE743F60800C4F2B2
:100D60000200006800F00C00042813D0FFE743F6EF
:100D70000800C4F20200006800F00C0008281ED130
:100D8000FFE743F60400C4F20200006840020028B6
:100D900015D5FFE743F60000C4F20200006800F436
:100DA00000310020B0EB514F08D0FFE704984068B5
:100DB00020B9FFE701208DF8170018E370E0FFE786
:100DC00004984068B0F5803F09D1FFE743F6000181
:100DD000C4F20201086840F48030086020E0049802
:100DE0004068B0F5A02F0DD1FFE743F60001C4F233
:100DF0000201086840F480200860086840F48030F0
:100E000008600CE043F60001C4F20201086820F417
:100E100080300860086820F480200860FFE7FFE762
:100E2000FFE704984068E8B1FFE7FFF71BFD039078
:100E3000FFE743F60000C4F20200006800F400314E
:100E40000020B0EB514F0CD1FFE7FFF70BFD0399EA
:100E5000401A652804D3FFE703208DF81700C6E287
:100E6000E7E71CE0FFF7FEFC0390FFE743F6000016
:100E7000C4F20200006800F400310020B0EB514FD2
:100E80000CD0FFE7FFF7EEFC0399401A652804D366
:100E9000FFE703208DF81700A9E2E7E7FFE7FFE788
:100EA000FFE7049800788007002840F19680FFE76C
:100EB00043F60800C4F20200006810F00C0F13D0D3
:100EC000FFE743F60800C4F20200006800F00C00DF
:100ED00008282CD1FFE743F60400C4F202000068A2
:100EE0004002002823D4FFE743F60000C4F20200CA
:100EF000006800F002010020B0EB510F09D0FFE7BD
:100F00000498C068012804D0FFE701208DF817007D
:100F10006DE243F60001C4F20201086820F0F80017
:100F2000049A126940EAC2000860FFE754E004989E
:100F3000C06870B3FFE70021C4F2472101200860B8
:100F4000FFF790FC0390FFE743F60000C4F20200B5
:100F5000006800F002010020B0EB510F0CD1FFE758
:100F6000FFF780FC0399401A032804D3FFE703200E
:100F70008DF817003BE2E7E743F60001C4F20201F7
:100F8000086820F0F800049A126940EAC20008607C
:100F900021E00021C4F2472100200860FFF762FC35
:100FA0000390FFE743F60000C4F20200006800F07F
:100FB00002010020B0EB510F0CD0FFE7FFF752FC0D
:100FC0000399401A032804D3FFE703208DF8170084
:100FD0000DE2E7E7FFE7FFE7FFE704980078000787
:100FE00000284BD5FFE70498406918B3FFE740F6A7
:100FF0008061C4F2472101200860FFF733FC0390B1
:10100000FFE743F67400C4F20200006800F002013A
:101010000020B0EB510F0CD1FFE7FFF723FC039941
:10102000401A032804D3FFE703208DF81700DEE100
:10103000E7E722E040F68061C4F247210020086023
:10104000FFF710FC0390FFE743F67400C4F20200C0
:10105000006800F002010020B0EB510F0CD0FFE758
:10106000FFF700FC0399401A032804D3FFE703208D
:101070008DF81700BBE1E7E7FFE7FFE7049800788A
:101080004007002840F1CE80FFE700208DF80700E0
:1010900043F64000C4F202000068C000002815D4E6
:1010A000FFE7FFE70020009043F64000C4F2020093
:1010B000016841F080510160006800F080500090AC
:1010C0000098FFE701208DF80700FFE747F20000D6
:1010D000C4F200000068C005002822D4FFE747F2F0
:1010E0000001C4F20001086840F480700860FFF756
:1010F000B9FB0390FFE747F20000C4F2000000686C
:10110000C00500280CD4FFE7FFF7ACFB0399401A99
:10111000032804D3FFE703208DF8170067E1EAE70F
:10112000FFE7FFE704988068012809D1FFE743F64D
:101130007001C4F20201086840F0010008601FE07D
:101140000498806805280DD1FFE743F67001C4F2CA
:101150000201086840F004000860086840F00100DF
:1011600008600CE043F67001C4F20201086820F048
:1011700001000860086820F004000860FFE7FFE74E
:10118000FFE704988068F8B1FFE7FFF76BFB039077
:10119000FFE743F67000C4F20200006800F00201AD
:1011A0000020B0EB510F0ED1FFE7FFF75BFB039977
:1011B000401A41F28931884204D3FFE703208DF8B9
:1011C000170014E1E5E71EE0FFF74CFB0390FFE793
:1011D00043F67000C4F20200006800F00201002033
:1011E000B0EB510F0ED0FFE7FFF73CFB0399401A1D
:1011F00041F28931884204D3FFE703208DF81700BC
:10120000F5E0E5E7FFE79DF80700012809D1FFE7D2
:1012100043F64001C4F20201086820F080500860E3
:10122000FFE7FFE704988069002800F0DC80FFE713
:1012300043F60800C4F20200006800F00C00082821
:1012400000F08580FFE70498806902285CD1FFE701
:101250006021C4F2472100200860FFF703FB0390E0
:10126000FFE743F60000C4F20200006800F00071DE
:101270000020B0EB516F0CD0FFE7FFF7F3FA0399B2
:10128000401A032804D3FFE703208DF81700AEE0CF
:10129000E7E70499C869D1F820C04B6A8A6A40EA36
:1012A0000C0040EA8310D2034FF6FF739A43A2F575
:1012B00080321043C96A40EA016043F60401C4F277
:1012C000020108606021C4F2472101200860FFF795
:1012D000C9FA0390FFE743F60000C4F20200006879
:1012E00000F000710020B0EB516F0CD1FFE7FFF769
:1012F000B9FA0399401A032804D3FFE703208DF8B5
:10130000170074E0E7E721E06021C4F247210020E4
:101310000860FFF7A7FA0390FFE743F60000C4F266
:101320000200006800F000710020B0EB516F0CD09B
:10133000FFE7FFF797FA0399401A032804D3FFE762
:1013400003208DF8170052E0E7E7FFE74AE0049832
:101350008069012804D1FFE701208DF8170046E0DD
:1013600043F60400C4F20200006802900498806909
:10137000012831D0FFE7029800F480000499C96980
:10138000884229D1FFE7029800F03F000499096ADA
:10139000884221D1FFE7029847F6C07108400499BE
:1013A000496AB0EB811F17D1FFE7029800F4403083
:1013B0000499896AC9034FF6FF729143A1F5803100
:1013C000884209D1FFE7029800F070600499C96A69
:1013D000B0EB016F04D0FFE701208DF8170006E0A5
:1013E000FFE7FFE7FFE700208DF81700FFE79DF814
:1013F000170006B080BD000081B00090009804285E
:1014000009D1FFE74EF21001CEF20001086840F06A
:101410000400086008E04EF21001CEF200010868F6
:1014200020F004000860FFE701B07047704700003B
:1014300080B582B00190019800F03EF902B080BD05
:1014400080B5FFF7F3FF80BD80B582B000900098B3
:1014500020B9FFE701208DF807003FE0009890F8E1
:101460003D0040B9FFE70099002081F83C0000985A
:1014700000F038F8FFE70099022081F83D0000995C
:1014800051F8040B00F09EF90099012081F8460004
:10149000FFE70099012081F83E00009981F83F00A4
:1014A000009981F84000009981F84100FFE7FFE7CB
:1014B0000099012081F84200009981F843000099C9
:1014C00081F84400009981F84500FFE70099012068
:1014D00081F83D0000208DF80700FFE79DF8070028
:1014E00002B080BD81B0009001B0704783B0019020
:1014F000019890F83D00012804D0FFE701208DF805
:101500000B006AE00199022081F83D000198016812
:10151000C86840F00100C860019800680021C4F26A
:10152000010188423CD0FFE701980068B0F1804F8C
:1015300036D0FFE70198006840F20041C4F2000194
:1015400088422DD0FFE70198006840F60001C4F200
:101550000001884224D0FFE70198006840F600416E
:10156000C4F2000188421BD0FFE70198006840F2F6
:101570000041C4F20101884212D0FFE701980068DF
:1015800044F20001C4F20101884209D0FFE701984A
:10159000006841F60001C4F20001884212D1FFE761
:1015A00001980068806800F0070000900098062805
:1015B00007D0FFE701980168086840F00100086063
:1015C000FFE706E001980168086840F00100086044
:1015D000FFE700208DF80B00FFE79DF80B0003B03C
:1015E0007047000081B0009000980168C86820F042
:1015F0000100C860FFE700980068006A41F211111D
:10160000084210D1FFE700980068006A40F24441A8
:10161000084207D1FFE700980168086820F0010040
:101620000860FFE7FFE7FFE70099012081F83D0030
:10163000002001B070470000FFE7FEE7FFE7FEE78C
:101640007047000088B0079006910592079800F057
:10165000070004900498C0F10700052803D3FFE7B2
:101660000420019004E00498C0F107000190FFE716
:101670000198039004980430062803D8FFE700205F
:10168000009003E0049803380090FFE70098029070
:1016900006980399012202FA01F101390840029BE0
:1016A000984005999A40013A1140084308B07047A4
:1016B000704700007047000080B582B0009000982D
:1016C0000138B0F1807F03D3FFE70120019019E0DA
:1016D000009801384EF21401CEF2000108604FF07C
:1016E000FF300F2100F0C2FC4EF21801CEF20001D3
:1016F000002008604EF21002CEF2000207211160B5
:101700000190FFE7019802B080BD000080B5FFF7AF
:10171000AFF8FFF795FE80BD4EF68851CEF200017E
:10172000086840F47000086043F60002C4F2020248
:10173000106840F00100106043F60801C4F2020195
:101740000020086011684FF6FF73CFF6F66319406A
:10175000116043F60403C4F2020343F21001C2F223
:1017600000411960116821F48021116043F60C01D9
:10177000C4F2020108604EF60851CEF200014FF0AB
:10178000006008607047000080B540F21040C4F26D
:1017900000000068C00798B1FFE740F20C40C4F2B7
:1017A00000000068C00750B1FFE740F21041C4F2EA
:1017B00000016FF00100086000F0C4FAFFE7FFE7E6
:1017C00080BD000083B002900191029800680090F3
:1017D00002980021C4F20101884225D0FFE7029857
:1017E000B0F1804F20D0FFE7029840F20041C4F2F0
:1017F0000001884218D0FFE7029840F60001C4F2C9
:101800000001884210D0FFE7029840F60041C4F280
:101810000001884208D0FFE7029840F20041C4F27C
:10182000010188420AD1FFE7009820F07000009083
:1018300001984168009808430090FFE70298002152
:10184000C4F20101884255D0FFE70298B0F1804F01
:1018500050D0FFE7029840F20041C4F200018842F4
:1018600048D0FFE7029840F60001C4F20001884228
:1018700040D0FFE7029840F60041C4F200018842E0
:1018800038D0FFE7029840F20041C4F201018842DB
:1018900030D0FFE7029844F20001C4F2010188420F
:1018A00028D0FFE7029844F20041C4F201018842C7
:1018B00020D0FFE7029844F60001C4F201018842FB
:1018C00018D0FFE7029841F60001C4F200018842F7
:1018D00010D0FFE7029841F60041C4F200018842AF
:1018E00008D0FFE7029842F20001C4F200018842EA
:1018F0000AD1FFE7009820F4407000900198C16879
:10190000009808430090FFE7009820F080000199BC
:10191000496908430090009802990860019880681E
:101920000299C862019800680299886202980021B1
:10193000C4F20101884208D0FFE7029840F200415A
:10194000C4F20101884205D1FFE7019800690299BC
:101950000863FFE702990120486102980069C00707
:1019600030B1FFE70299086920F001000861FFE744
:1019700003B07047FFE7FEE780B500F0B7FB00F06B
:10198000CFFB00F073FC00F0EDFC00F005FD00F073
:1019900011FD00F01DFD00F029FD00F035FD00F007
:1019A00041FD00F0D7FB00F0E3FB00F0EFFB00F09F
:1019B000FBFB00F007FC00F013FC00F01FFC00F044
:1019C0002BFC00F037FC00F043FC00F069FC00F059
:1019D00075FC00F081FC00F08DFC00F099FC00F03B
:1019E000A5FC00F0B1FC80BD80B500F08DFB00F0DF
:1019F000A5FB00F049FC00F0C3FC80BD82B04FF0B5
:101A0000FF30019000200090FFE7009810281BD8BD
:101A1000FFE7009940F27000C2F2000000EB0110F5
:101A20008068019988420AD2FFE7009940F270006D
:101A3000C2F2000000EB011080680190FFE7FFE7B1
:101A4000009801300090E0E7019802B07047000074
:101A500080B500F0E9FA80BD80B584B00390FFF74F
:101A6000F7FF0398013008B9FFE70FE003980190F2
:101A700000F004FA01460198401A029002994FF0D2
:101A8000FF3000EB410000F0D7FAFFE704B080BD63
:101A9000FFE7FEE780B588B000F092F8FFE700208E
:101AA000079043F63000C4F20200016841F00101E2
:101AB0000160006800F0010007900798FFE7FFE76A
:101AC0000020069043F63000C4F20200016841F0A5
:101AD00002010160006800F0020006900698FFE72E
:101AE000FFE70020059043F63000C4F202000168D1
:101AF00041F004010160006800F0040005900598C1
:101B0000FFE7FFE70020049043F63000C4F2020034
:101B1000016841F008010160006800F008000490CD
:101B20000498FFE7FFE70020039043F63000C4F27B
:101B30000200016841F010010160006800F010002F
:101B400003900398FFE7FFE70020029043F6300080
:101B5000C4F20200016841F020010160006800F059
:101B6000200002900298FFE7FFE70020019043F673
:101B70003000C4F20200016841F0400101600068D9
:101B800000F0400001900198FFE7FFE7002000907F
:101B900043F63800C4F20200016841F0010101601F
:101BA000006800F0010000900098FFE7FEF76EFE6D
:101BB00000F04CF900F06EF900F01CFA08B080BD9E
:101BC00080B594B0FFE70020029043F64000C4F2D5
:101BD0000200016841F080510160006800F080500F
:101BE00002900298FFE7FFE70020019047F2000013
:101BF000C4F20000016841F480410160006800F413
:101C0000804001900198FFE7012008904FF4803058
:101C1000099002200E904FF480010F91192110912C
:101C20004FF4A871119112900720139008A8FFF7A4
:101C300083F818B1FFE7FFF72BFFFFE70F200390B2
:101C400002200490002005904FF4A05006904FF41D
:101C50008050079003A80521FEF7C2FE18B1FFE7E8
:101C6000FFF716FFFFE7FEF7EDFF44F6D351C1F291
:101C70006201A0FB01108009FFF7DAFB0420FFF7E7
:101C8000BBFB4FF0FF3000221146FEF787FE14B079
:101C900080BD000080B58EB00D900D9802908079C7
:101CA000A8B9FFE7029881880891012109910A915A
:101CB000002101910B910C91006808A9FEF7DEFB51
:101CC0000299019A08688988FEF7B4FD13E002982A
:101CD000807901280ED1FFE70298818803910021C5
:101CE00004910122059206910791006803A9FEF76D
:101CF000C5FBFFE7FFE70EB080BD000084B0039096
:101D00008DF80B100192ADF8023003980199016033
:101D1000BDF8021081809DF80B10817104B07047EE
:101D200080B584B003900291ADF80620039800902E
:101D3000029ABDF806300121FFF7E0FF009804B0D9
:101D400080BD000080B584B000F098F80390FFF7E4
:101D500055FE0399884201D9FFE746E0FFF778FE78
:101D600000200290FFE70298102839D8FFE7029977
:101D700040F27000C2F2000000EB0110806803998D
:101D8000884228D8FFE7029940F27000C2F20000B2
:101D900000EB011001900198006880470198007BDA
:101DA000C00790B1FFE7FFE701994A6888681044CF
:101DB0008860FFE701988068009000F05FF80146B6
:101DC00000988842F0D3FFE704E001994FF0FF301C
:101DD0008860FFE7FFE7FFE7029801300290C2E763
:101DE000FFF70CFEFFF738FEFFE704B080BD0000F0
:101DF00080B582B0019001990868009000988988A8
:101E00000122FEF717FD02B080BD000080B582B050
:101E10000190019908680090009889880022FEF7D7
:101E200009FD02B080BD000080B584B0039002912E
:101E3000ADF8062003980090029ABDF80630002104
:101E4000FFF75CFF009804B080BD00004EF6FC5127
:101E5000CEF20001086840F08070086041F2040191
:101E6000CEF200010020086041F20001CEF2000134
:101E7000086840F0010008607047000080B5FEF778
:101E8000F1FC80BD80B582B001900198FEF7D4FAD4
:101E900002B080BD80B584B040F2F810C2F20000FC
:101EA000FFF7F8FE40F20820C2F20000FFF7F2FE52
:101EB00040F21020C2F20000FFF7ECFE40F21820C2
:101EC000C2F20000FFF7E6FE40F22020C2F200005E
:101ED000FFF7E0FE40F24820C2F20000FFF7DAFE12
:101EE00040F2B820C2F20000FFF7D4FE40F2A0207A
:101EF000C2F20000FFF7CEFE40F2A820C2F20000BE
:101F0000FFF7C8FE40F2B020C2F20000FFF7C2FEA9
:101F100040F20020C2F20000FFF7BCFE40F2E810E1
:101F2000C2F20000FFF7B6FE40F2F010C2F200006D
:101F3000FFF7B0FE40F25820C2F20000FFF7AAFE01
:101F400040F26820C2F20000FFF7A4FE40F27020C9
:101F5000C2F20000FFF79EFE40F27820C2F20000BD
:101F6000FFF798FE40F25020C2F20000FFF792FE09
:101F700040F28020C2F20000FFF78CFE40F24020C9
:101F8000C2F20000FFF786FE40F23020C2F20000ED
:101F9000FFF780FE40F23820C2F20000FFF77AFE21
:101FA00040F22820C2F200000090FFF773FE009874
:101FB000FFF71EFF40F28820C2F200000190FFF7F9
:101FC00069FE0198FFF714FF40F29020C2F2000072
:101FD0000290FFF75FFE0298FFF70AFF40F2982099
:101FE000C2F200000390FFF755FE0398FFF70EFFC3
:101FF00004B080BD80B540F28010C2F20000FFF74F
:1020000049FE40F29010C2F20000FFF743FE40F29A
:102010008810C2F20000FFF73DFE40F29810C2F2B5
:102020000000FFF737FE80BD80B540F2A010C2F27D
:102030000000FFF7D7FA80BD80B582B0019001990A
:1020400040F2A010C2F200000090C160FFF7FCF95E
:102050000098FFF74BFA02B080BD00004EF60C501E
:10206000CEF200000068C0F30220704782B08DF805
:10207000070000919DF9070000280AD4FFE70098A7
:1020800000019DF907104EF20042CEF20002885482
:102090000BE0009800019DF8071001F00F014EF6CB
:1020A0001452CEF200028854FFE702B070470000DD
:1020B00083B00290029800F0070000904EF60C5199
:1020C000CEF200010868019001984FF6FF0210401F
:1020D00001900198009A40EA02200022C0F2FA52D0
:1020E000104301900198086003B0704780B540F23A
:1020F000F810C2F2000041F60001C4F202014FF4F0
:102100008072FFF791FE80BD80B540F28010C2F270
:1021100000000021C4F202010422FFF701FE80BD8D
:1021200080B540F20820C2F2000041F60001C4F27E
:1021300002018022FFF778FE80BD000080B540F2EA
:102140008810C2F200000021C4F202018022FFF7D1
:10215000E7FD80BD80B540F26020C2F2000040F68D
:102160000001C4F202010822FFF75EFE80BD0000FC
:1021700080B540F26820C2F2000040F60001C4F2CF
:1021800002010422FFF750FE80BD000080B540F23E
:102190007020C2F2000040F60001C4F202010222E7
:1021A000FFF742FE80BD000080B540F27820C2F209
:1021B000000040F60001C4F202010122FFF734FEE4
:1021C00080BD000080B540F25820C2F2000041F20C
:1021D0000041C4F202014FF48062FFF725FE80BD8A
:1021E00080B540F25020C2F2000041F20041C4F23A
:1021F00002010222FFF718FE80BD000080B540F208
:102200008020C2F2000041F20041C4F202018022AB
:10221000FFF70AFE80BD000080B540F24020C2F208
:1022200000000021C4F202014FF48052FFF7FCFDD0
:1022300080BD000080B540F23020C2F200000021D5
:10224000C4F202014FF40062FFF7EEFD80BD000012
:1022500080B540F23820C2F200000021C4F2020131
:102260004FF48072FFF7E0FD80BD000080B540F2C2
:102270001020C2F2000041F60001C4F20201402227
:10228000FFF7D2FD80BD000080B540F29810C2F289
:1022900000000021C4F202012022FFF741FD80BDB1
:1022A00080B540F22820C2F200000021C4F20201F1
:1022B0004FF48062FFF7B8FD80BD000080B540F2AA
:1022C000A020C2F2000040F60041C4F202014FF427
:1022D0000072FFF7A9FD80BD80B540F2A820C2F2D0
:1022E000000040F60041C4F202014FF48072FFF793
:1022F0009BFD80BD80B540F2B020C2F2000040F2EC
:102300000041C4F202014FF40042FFF78DFD80BD91
:1023100080B540F28820C2F2000041F60001C4F20C
:1023200002010122FFF780FD80BD000080B540F270
:102330009020C2F2000041F20041C4F202014FF4C9
:102340000042FFF771FD80BD80B540F29820C2F2D7
:10235000000041F20041C4F202014FF48042FFF755
:1023600063FD80BD80B540F21820C2F2000041F646
:102370000001C4F202012022FFF756FD80BD0000DB
:1023800080B540F29010C2F200000021C4F20201B8
:102390004022FFF749FD80BD80B540F22020C2F207
:1023A000000040F60041C4F202014FF40062FFF762
:1023B0003BFD80BD80B540F24820C2F2000040F6EF
:1023C0000041C4F202014FF40052FFF72DFD80BD21
:1023D00080B540F2B820C2F2000040F60041C4F2DD
:1023E00002014FF48052FFF71FFD80BD80B540F21F
:1023F0000020C2F2000041F20001C4F202014FF4D9
:102400000052FFF711FD80BD80B540F2E810C2F226
:10241000000041F20001C4F202014FF48052FFF7C4
:1024200003FD80BD80B540F2F010C2F2000041F221
:102430000001C4F202014FF40062FFF7F5FC80BD19
:1024400080B582B000200190FFF724FB4FF4FA70B2
:10245000FFF718FDFFE7FEE7F1EE100A4FF6FF71F8
:10246000C0F2C03120EA010040F04070E1EE100AF5
:10247000704700000000000000000102030406078E
:1024800008090000B024000800000020100000002F
:10249000EC010008C024000810000020B8E2010090
:1024A0000C020008D5F4FFFF41F5FFFF000000001B
:1024B0000024F400010000001000000000000000F3
:040000050800018965
:00000001FF
