:100003002020202009202020202020202020202004
:10001300202044656D6F2042544520436F6D70610D
:1000230072650045786563757465204C6F67696315
:1000330020274F52272030786630303000576974BC
:10004300686F7574204254450057697468204254A0
:100053004520577269746500524F500057697468A0
:1000630020425445204D6F7665005370656E7420B1
:1000730035312E31326D73005370656E7420323515
:100083002E35366D7300535370656E7420362E34DF
:100093006D730020202020202020202020202044B9
:1000A300656D6F2042544520436F6C6F7220457815
:1000B30070616E73696F6E00436F6C6F7220457869
:1000C30070616E73696F6E00436F6C6F7220576956
:1000D3007468206368726F6D61206B6579002020FE
:1000E30020202020202020202020202044656D6F08
:1000F30020425445205061747465726E2046696CC9
:100103006C005061747465726E2046696C6C0050AB
:1001130061747465726E2046696C6C2057697468EB
:10012300004368726F6D61204B65790020202020A9
:1001330020202020202020202020202020202020BC
:1001430044656D6F2050495000504950310050496B
:100153005032002020202020202020202020417009
:10016300706C69636174696F6E2044656D6F2057AD
:10017300617665666F726D00425445206D656D6FE3
:10018300727920636F7079202B2047656F6D6574DA
:1001930072696320647261772064656D6F20776193
:1001A3007665666F726D002020202020202020209D
:1001B30020202020202044656D6F205363726F6CD4
:1001C3006C696E6720546578740055736564204DBF
:1001D3006F766520425445207769746820436872BE
:1001E3006F6D61204B6579200044656D6F2053630B
:1001F300726F6C6C696E67205465787400202020E0
:100203002020202020202020202044656D6F204DB9
:10021300756C7469204672616D652042756666650A
:100223007200202020202020202020202020204475
:10023300656D6F204D756C6974204672616D652024
:100243004275666665720020202020202020202031
:100253002020202044656D6F20736C696465204203
:100263007566666572002020202020202020202033
:10027300202020202044656D6F20416C7068612030
:10028300426C656E64696E67004661646520696EE1
:1002930020616E642066616465206F75740045613A
:1002A3007374526973696E6720546563686E6F6C0B
:1002B3006F6779007777772E627579646973706CED
:1002C30061792E6F636D0031302E3120696E636862
:1002D30020544654204D6F64756C652020313032B4
:1002E300342A36303020446F747300456D62656480
:1002F30064656420387831362041534349492043AB
:10030300686172616374657200456D6265646465FA
:1003130064203132783234204153434949204368C1
:100323006172616374657200456D626564646564DE
:1003330020313678333220415343494920436861A1
:1003430072616374657200537570706F7274696E55
:10035300672047656E69746F7020496E632E205560
:100363004E49434F44452F424947352F4742206565
:1003730074632E2053657269616C204368617261F6
:100383006374657220524F4D20776974682031364B
:100393007831362F32347832342F33325833322097
:1003A300646F747320466F6E742E005468652073F7
:1003B3007570706F7274696E672070726F647563A5
:1003C30074206E756D626572732061726520475487
:1003D30032314C313654572F475432314831365429
:1003E30031572C20475432334C31365532572C2059
:1003F300475432334C32345433592F4754323348F1
:1004030032345433592C20475432334C32344D3127
:100413005A2C20616E6420475432334C33325334A8
:10042300572F475432334833325334572C204754D1
:1004330032334C32344636592C20475432334C3203
:10044300345331572E0044656D6F20475432334C7B
:10045300323454335920424947353A00B6B0B37168
:10046300A4A4A4E5C163C5E931367831363A5241D3
:10047300383837362054465420B9CFA7CEB1B1A867
:10048300EEBEB900B6B0B371A4A4A4E5C163C5E9D7
:1004930032347832343A524138383736205446545D
:1004A30020B9CFA7CEB1B1A8EEBEB90044656D6F38
:1004B30020475432334C3234543359204742323379
:1004C30031323A00BCAFCDA8D6D0CEC4BCF2CCE515
:1004D30031367831363A524138383736205446541B
:1004E30020CDBCD0CEBFD8D6C6C6F70044656D6F4D
:1004F3002074657874207472616E73706172656EB6
:100503007420777269746500AD49B4BAB37AA9FAF5
:10051300A672BC67A44A0044656D6F207465787445
:1005230020637572736F723A00303132333435366B
:100533003738390044656D6F20677261706869638D
:1005430020637572736F723A0020202020202020D0
:100553002020202020202020202020202044656DE2
:100563006F20444D4100202044656D6F2064697203
:100573006563742061636365737320736572696176
:100583006C20464C41534820746F2073686F77206A
:1005930070696374757265007777772E6275796415
:1005A3006973706C61792E6F636D20204361706194
:1005B30063697469766520746F7563682073637209
:1005C30065656E20746573740073656E64204346BD
:1005D30047204F4B0073656E6420434647204E4FC0
:1005E3004B00546F75636820746F20646973706C7B
:1005F30061792074686520636F6F7264696E6174DA
:100603006500583D00593D00000000000000000057
:1006130000000000000000000000000000000000D7
:1006230000000000000000000000000000000000C7
:100633000000000000000000000001800180018034
:10064300018001800180018001800180018001809F
:100653000180018000000000018001800000000093
:1006630000000000000000000000000000CC00CCEF
:1006730000CC00CC00CC00CC000000000000000047
:100683000000000000000000000000000000000067
:100693000000000000000000000000000000000057
:1006A300000000000C600C600C60063006301FFE7A
:1006B3001FFE0630073803181FFE1FFE031803181A
:1006C300018C018C018C00000000008003E00FF816
:1006D3000E9C1C8C188C008C009801F807E00E808F
:1006E3001C80188C188C189C0CB80FF003E0008049
:1006F3000080000000000000000000000000180E51
:100703000C1B0C110611061103110311019B018E21
:1007130038C06CC0446044604430443044186C18A2
:10072300380C000000000000000001E003F007386F
:1007330006180618033001F000F000F8319C330E60
:100743001E061C061C063F0673FC21F00000000079
:10075300000000000000000000000000000C000C7E
:10076300000C000C000C000C000000000000000056
:100773000000000000000000000000000000000076
:1007830000000000000000000000020003000180E0
:1007930000C000C000600060003000300030003056
:1007A30000300030003000300060006000C000C046
:1007B300018003000200000000000020006000C070
:1007C3000180018003000300060006000600060006
:1007D30006000600060006000300030001800180F6
:1007E30000C00060002000000000000000000000C6
:1007F3000000000000C000C006D807F801E0033085
:1008030007380000000000000000000000000000A6
:1008130000000000000000000000000000000000D5
:1008230000000000018001800180018001803FFC05
:100833003FFC0180018001800180018000000000F5
:1008430000000000000000000000000000000000A5
:100853000000000000000000000000000000000095
:100863000000000000000000000001800180010082
:1008730001000080000000000000000000000000F4
:100883000000000000000000000000000000000065
:1008930007E007E000000000000000000000000087
:1008A3000000000000000000000000000000000045
:1008B3000000000000000000000000000000000035
:1008C3000000000000000000000000C000C00000A5
:1008D300000000000000000000000C000C000600F7
:1008E300060006000300030003000380018001806B
:1008F300018000C000C000C0006000600000000074
:100903000000000000000000000003E007F00E38C4
:100913000C18180C180C180C180C180C180C180CB4
:10092300180C180C0C180E3807F003E00000000038
:10093300000000000000000000000100018001C071
:1009430001F001980188018001800180018001800C
:10095300018001800180018001800180000000008E
:100963000000000000000000000003E00FF80C1876
:10097300180C180C180018000C0006000300018066
:1009830000C00060003000181FFC1FFC00000000C6
:100993000000000000000000000001E007F80E184E
:1009A3000C0C0C0C0C00060003C007C00C00180054
:1009B3001800180C180C0C1807F803E000000000CE
:1009C300000000000000000000000C000E000F00FB
:1009D3000F000D800CC00C600C600C300C180C0C5C
:1009E3003FFC3FFC0C000C000C000C00000000005E
:1009F300000000000000000000000FF80FF80018CE
:100A03000018000C03EC07FC0E1C1C001800180057
:100A13001800180C0C1C0E1807F803E00000000067
:100A23000000000000000000000007C00FF01C38A9
:100A330018180018000C03CC0FEC0E3C1C1C180CEF
:100A4300180C180C1C180E3807F003E00000000007
:100A5300000000000000000000001FFC1FFC0C0051
:100A63000600060003000380018001C000C000E00F
:100A730000600060007000300030003000000000B3
:100A83000000000000000000000003E007F00E3843
:100A93000C180C180C18063807F007F00C18180C73
:100AA300180C180C180C0C380FF803E000000000A9
:100AB3000000000000000000000003E007F00E3813
:100AC3000C1C180C180C180C1C1C1E381BF819E0F5
:100AD30018000C000C000E1C07F801F000000000C9
:100AE3000000000000000000000000000000000003
:100AF30000000000018001800000000000000000F1
:100B030000000000000000000180018000000000E0
:100B130000000000000000000000000000000000D2
:100B230000000000018001800000000000000000C0
:100B330000000000000000000180018001000100AE
:100B43000080000000000000000000000000000022
:100B5300000000000000000010001C000F8003E0F4
:100B630000F8001800F803E00F801C0010000000DC
:100B73000000000000000000000000000000000072
:100B830000000000000000001FF80000000000004B
:100B93001FF800000000000000000000000000003B
:100BA3000000000000000000000000000000000042
:100BB30000000000000000000008003801F007C03A
:100BC3001F0018001F0007C001F0003800080000D4
:100BD3000000000000000000000003E00FF80C1804
:100BE300180C180C18000C0006000300018000C04C
:100BF30000C000C00000000000C000C000000000F2
:100C030000000000000000000000000007E01818CA
:100C1300200429C24A2244114409440944092209EF
:100C230013110CE240022004181807E00000000032
:100C3300000000000000000000000380038006C0E5
:100C430006C006C00C600C601830183018303FF82E
:100C53003FF8701C600C600CC006C006000000006A
:100C63000000000000000000000003FC0FFC0C0C5F
:100C7300180C180C180C0C0C07FC0FFC180C300C7F
:100C8300300C300C300C180C1FFC07FC000000006B
:100C93000000000000000000000007C01FF038380B
:100CA300301C700C600600060006000600060006F5
:100CB30000066006700C301C1FF007E00000000007
:100CC3000000000000000000000003FE0FFE0E06FF
:100CD3001806180630063006300630063006300691
:100CE3003006180618060E060FFE03FE000000006D
:100CF300000000000000000000003FFC3FFC000C6F
:100D0300000C000C000C000C1FFC1FFC000C000C62
:100D1300000C000C000C000C3FFC3FFC000000002A
:100D2300000000000000000000003FF83FF800183A
:100D330000180018001800181FF81FF800180018F2
:100D43000018001800180018001800180000000010
:100D5300000000000000000000000FE03FF8783CB6
:100D6300600EE006C00700030003FE03FE03C0039A
:100D7300C007C006C00EF03C3FF80FE000000000C3
:100D830000000000000000000000300C300C300CAC
:100D9300300C300C300C300C3FFC3FFC300C300C72
:100DA300300C300C300C300C300C300C00000000D8
:100DB30000000000000000000000018001800180AD
:100DC3000180018001800180018001800180018018
:100DD300018001800180018001800180000000000A
:100DE30000000000000000000000060006000600EE
:100DF30006000600060006000600060006000600C0
:100E0300060006180618073803F001E0000000008A
:100E130000000000000000000000300618060C0669
:100E230006060306018600C60066007600DE018E14
:100E3300030606060C0618063006600600000000CE
:100E43000000000000000000000000180018001857
:100E530000180018001800180018001800180018CF
:100E630000180018001800181FF81FF800000000F1
:100E730000000000000000000000E00EF01EF01E65
:100E8300F01ED836D836D836D836CC66CC66CC6683
:100E9300C6C6C6C6C6C6C6C6C386C386000000008D
:100EA30000000000000000000000300C301C303C4B
:100EB300303C306C306C30CC30CC318C330C330C58
:100EC300360C360C3C0C3C0C380C300C000000008B
:100ED3000000000000000000000007E01FF8381CBD
:100EE300700E6006C003C003C003C003C003C00389
:100EF300C0036006700E381C1FF807E000000000F6
:100F0300000000000000000000000FFC1FFC380C74
:100F1300300C300C300C300C180C1FFC07FC000C90
:100F2300000C000C000C000C000C000C0000000076
:100F33000000000000000000000007E01FF8381C5C
:100F4300700E6006E003C003C003C003C003C00308
:100F5300E00763063F0E3C1C3FF8F7E0C0000000CB
:100F6300000000000000000000000FFE1FFE380616
:100F730030063006300638061FFE07FE0306060657
:100F83000C0618061806300630066006000000003E
:100F93000000000000000000000003E00FF80C1C3C
:100FA300180C180C000C001C03F80FE01E0038008E
:100FB30030063006300E1C1C0FF807E0000000005E
:100FC300000000000000000000007FFE7FFE0180A3
:100FD3000180018001800180018001800180018006
:100FE30001800180018001800180018000000000F8
:100FF30000000000000000000000300C300C300C3A
:10100300300C300C300C300C300C300C300C300CFD
:10101300300C300C300C18181FF807E000000000EB
:1010230000000000000000000000600330063006EE
:101033003006180C180C180C0C180C180E38063047
:10104300063007700360036001C001C000000000A8
:1010530000000000000000000000600361C361C3E2
:1010630061C33366336633663366336633661B6C3C
:101073001B6C1B6C1A2C1E3C0E380E380000000033
:1010830000000000000000000000E00F700C3018AA
:1010930018300C700E6007C00380038003C006E0A5
:1010A3000C701C301818300C600EE00700000000B4
:1010B30000000000000000000000C0036006300CC8
:1010C300381C18380C30066007E003C0018001802B
:1010D3000180018001800180018001800000000007
:1010E300000000000000000000007FFC7FFC6000A7
:1010F300300018000C0006000300018000C00060EF
:1011030000300018000C00067FFE7FFE0000000088
:101113000000000000000000000003E003E00060A6
:1011230000600060006000600060006000600060BC
:1011330000600060006000600060006000600060AC
:10114300006003E003E000000000003000300060B6
:101153000060006000C000C000C001C001800180C9
:1011630001800300030003000600060000000000E6
:101173000000000000000000000003E003E00300A3
:101183000300030003000300030003000300030044
:101193000300030003000300030003000300030034
:1011A300030003E003E000000000000001C001C0F1
:1011B300036003600360063006300C180C1800004F
:1011C300000000000000000000000000000000001C
:1011D300000000000000000000000000000000000C
:1011E30000000000000000000000000000000000FC
:1011F30000000000000000000000FFFFFFFF0000F0
:1012030000000000000000000000000C000C000CB7
:10121300000C000C000C00000000000000000000A7
:1012230000000000000000000000000000000000BB
:1012330000000000000000000000000000000000AB
:101243000000000003F007F80C1C0C0C0F000FF05B
:101253000CF80C0C0C0C0F1C0FF818F0000000001D
:101263000000000000000000000000180018001833
:101273000018001803D80FF80C3818181818181885
:101283001818181818180C380FF803D800000000A5
:10129300000000000000000000000000000000004B
:1012A3000000000003C007F00E300C1800180018EF
:1012B300001800180C180E3007F003C000000000DF
:1012C30000000000000000000000180018001800D3
:1012D300180018001BC01FF01C3018181818181815
:1012E3001818181818181C301FF01BC00000000035
:1012F30000000000000000000000000000000000EB
:101303000000000003C00FF00C3018181FF81FF87E
:101313000018001818381C300FF007C00000000038
:10132300000000000000000000000F800FC000C09C
:1013330000C000C007F007F000C000C000C000C03C
:1013430000C000C000C000C000C000C0000000001A
:10135300000000000000000000000000000000008A
:10136300000000000DE00FF80E180C0C0C0C0C0C18
:101373000C0C0C0C0C0C0E180FF80DE00C000C0CE4
:10138300061C07F801F00000000000180018001800
:101393000018001807D80FF81C3818181818181850
:1013A300181818181818181818181818000000001A
:1013B3000000000000000000000000C000C00000AA
:1013C3000000000000C000C000C000C000C000C09A
:1013D30000C000C000C000C000C000C0000000008A
:1013E3000000000000000000000000C000C000007A
:1013F3000000000000C000C000C000C000C000C06A
:1014030000C000C000C000C000C000C000C000C0D9
:1014130000C000F8007800000000000C000C000C75
:10142300000C000C0C0C060C030C018C00CC006CA3
:1014330000FC019C038C030C060C0C0C0000000048
:101443000000000000000000000000C000C000C059
:1014530000C000C000C000C000C000C000C000C089
:1014630000C000C000C000C000C000C000000000F9
:101473000000000000000000000000000000000069
:10148300000000003C7C7EFFE3C7C183C183C183AE
:10149300C183C183C183C183C183C18300000000B1
:1014A3000000000000000000000000000000000039
:1014B3000000000007980FF81C381818181818189F
:1014C30018181818181818181818181800000000F9
:1014D3000000000000000000000000000000000009
:1014E3000000000003C00FF00C301818181818186B
:1014F3001818181818180C300FF003C0000000005B
:1015030000000000000000000000000000000000D8
:101513000000000003D80FF80C3818181818181812
:101523001818181818180C380FF803D800180018D2
:101533000018001800180000000000000000000060
:10154300000000001BC01FF01C30181818181818D2
:101553001818181818181C301FF01BC01800180092
:101563001800180018000000000000000000000030
:101573000000000007B003F00070003000300030BE
:101583000030003000300030003000300000000038
:101593000000000000000000000000000000000048
:1015A3000000000003E003F00E380C18003803F0CD
:1015B30007C00C000C180E3807F003E00000000011
:1015C300000000000000000000000000008000C0D8
:1015D30000C000C007F007F000C000C000C000C09A
:1015E30000C000C000C000C007C0078000000000AA
:1015F30000000000000000000000000000000000E8
:1016030000000000181818181818181818181818B7
:101613001818181818181C381FF019E000000000DB
:1016230000000000000000000000000000000000B7
:1016330000000000180C0C180C180C1806300630AB
:10164300063003600360036001C001C000000000B6
:101653000000000000000000000000000000000087
:101663000000000041C141C161C3636363636363FD
:101673003636363636361C1C1C1C1C1C000000007B
:101683000000000000000000000000000000000057
:1016930000000000381C1C380C3006600360036037
:1016A3000360036006600C301C38381C0000000027
:1016B3000000000000000000000000000000000027
:1016C3000000000030181830183018700C600C60DF
:1016D3000CE006C006C00380038003800180018004
:1016E30001C000F0007000000000000000000000D6
:1016F300000000001FFC1FFC0C000600030001801B
:1017030000C00060003000181FFC1FFC0000000038
:10171300000000000000000000000300018000C082
:1017230000C000C000C000C000C000600060003006
:101733000060004000C000C000C000C000C000C086
:10174300018003000000000000000180018001808F
:10175300018001800180018001800180018001807E
:10176300018001800180018001800180018001806E
:1017730001800180018000000000006000C001C002
:1017830001800180018001800180030003000600C5
:10179300030001000180018001800180018001803C
:1017A30000C0006000000000000000000000000016
:1017B300000000000000000010F01FF80F080000F8
:1017C3000000000000000000000000000000000016
:1017D3000000000000000000F800F800F800F80026
:1017E300F800F800F800924889E6F800F800834909
:1017F3005B29F800F800F800F800F800F800F8009A
:10180300F800F80089E6FDD6FE379247F80072C764
:10181300EFDC636BF800F800F800F800F800F8005C
:10182300F8008948FD93FAA8D983FDB39168AA2BE0
:10183300F71F72F0F800F800F800F800F800F8005D
:10184300AA2BFDFAE1C4D121D983E1C4FE3B99CA95
:10185300D5FC8393F800F800F800F800F800C1E71E
:10186300FD56EA29AA8868807902A247C925FDF8AE
:10187300C207B9C7F800F800F800F800A104FDD6C4
:10188300E208D9C75800FD33F4B170A0D9C7C966BF
:10189300FE1798E3F800F800F8008203FD31E20533
:1018A300C2077800B637F7FFF7FFB6378000B1A558
:1018B300D9C4FE156960F8009264FDB1EA66D9A443
:1018C3007800FCD1EFDEF7FFF7FFE7BDFCF288807D
:1018D300D9C4D9C4FEB58A2348E45105406640669D
:1018E300CD58FF5FFFFEFF9CFFFEFF7CFF7FDDDA2D
:1018F30038254887512548E4A3AFE5B7EDBBFE5E25
:10190300FF3F6A4D62C962CA62EA62EA728DFEFFF4
:10191300FE3DEDBBE597ABF073CCFFFDEFDEE79D3E
:10192300FFFF94D4FFFFEF9FB597FFFF94D4FFFF12
:10193300F7FFF7FEFFFD6BAC6B8BFFFDF7FEFFFFC1
:10194300FFFF4A6AB5B8C65AC63AEF9F5B0DF7BFA9
:10195300FFFFF7DEFFFD73CC6BE7FFF9FFF7FF95A2
:10196300FFFBAD50DFFFDFFFA69BCFBF9CAEFFFBAE
:10197300FFF6FFF7FFF96BE763A6A5AECDEECDEE5D
:10198300CE346307330D32CC4B8F434E6307CE54B3
:10199300C5ADBD8DADEF6BE77328D614FF5CEEB913
:1019A300EED9F71AFFDAEF58E6F7EF58F73BEF1ADD
:1019B300EED9FF7CCDF373085A6549C3310349C699
:1019C30049C639643981420341E239A249C641A576
:1019D30049C6416441816AC700000000000000005D
:1019E30000000000000000000000000000000000F4
:1019F30000000000000000000000000000000000E4
:101A030000000000000000000000000000000000D3
:101A130000000000000000000000000000000000C3
:101A230000000000000000000000000000000000B3
:101A330000000000000000000000000000000000A3
:101A43000000000000000000000000000000000093
:101A53000000000000000000000C1800000000005F
:101A630000000000000000000000000009FF7FC02C
:101A73000000000000000000000000000000000063
:101A83001FFF7FFC000000000000000000000000BA
:101A9300000000007FFE3FFF000000000000000088
:101AA3000000000000000003FFFC1FFFE000000037
:101AB30000000000000000000000000FFFF80FFF0F
:101AC300F800000000000000000000000000003FDC
:101AD300FF87F1FFFC000000000000000000000091
:101AE30000000067C807F009F700000000000000CD
:101AF30000000000000000000007F00000000000EC
:101B03000000000000000000000000000007F000DB
:101B13000000000000000000000000000000F000D2
:101B2300000FF000000700000000000000000000AC
:101B3300000F8000000FF0000003F8000000000019
:101B430000000000003F0000000FF80000007E00CE
:101B5300000000000000000001FE0000000FF8007C
:101B630000003FC0000000000000000007FC000070
:101B7300000FF80000001FF000000000000000004C
:101B83003FF80000000FF80000000FF8000000000D
:101B9300000000007FE00000000FF000000007FFDE
:101BA3000000000000000000FFC000000007F0007C
:101BB300000001FF8000000000000001FF80000022
:101BC3000007F000000000FFC00000000000000359
:101BD300FF0000000007F0000000007FC0000000CD
:101BE30000000003FE0000000007F0000000003FBB
:101BF300C000000000000003FC0000000007F0002C
:101C03000000001FE000000000000004F8000000D6
:101C13000003E0000000000FC000000000000028E7
:101C2300300000000007F00000000004080000007E
:101C330000000078180000000003E000000000002E
:101C43000F000000000000F83C0000000001C0008D
:101C53000000001E0F800000000001FC7E00000059
:101C63000001C0000000003F1FC00000000003FC93
:101C7300FF0000000001C0000000007F9FE00000A3
:101C8300000003FFFF8000000001C000000000FF10
:101C9300FFE00000000003FDFFC000000001C000E2
:101CA300000001FFDFE00000000007F8FFE0000094
:101CB30000008000000003FF8FF0000000000FF021
:101CC3007FF0000000008000000007FF07F0000025
:101CD30000000FE03FF800000000800000000FFE4E
:101CE30003F8000000001FC01FF800000000800080
:101CF30000000FFC01FC000000000F800FF8000043
:101D03000000000000000FF800F8000000001F00B2
:101D130007FC00000000000000001FF0007C000032
:101D230000001E0003FE00000000800000003FE0F2
:101D3300007C000000003C0001FF00000000800068
:101D430000007FC0003E000000003C0000FF0000D8
:101D53000000800000007F80001E0000000078006B
:101D6300003F8000000080000000FE00000F000024
:101D730000003000001FC0000001C0000001FC0093
:101D83000006000000006000000FC0000001C0005A
:101D93000001F80000030000000040000001C00043
:101DA3000003E0000001C000000100000000C000CB
:101DB3000000E0000003E0000003800000010000D9
:101DC3000000C000000030000003E0000006000037
:101DD3000001000000008000000010000003E0008C
:101DE300000400000000800000000000000000006C
:101DF3000007F000000000000000000000000000E9
:101E030000000000000FF0000000000000000000D0
:101E13000000000000000300000FF8000060000055
:101E2300000000000000000000000180001FFC0013
:101E330000C000000000000000020000000000F8E5
:101E4300001FFC000F8000000000200000060000BF
:101E5300000000FC001FFC001F8000000000300099
:101E630000040000000000FFC01FFC01FF80000011
:101E730000001000000E0000000000FFE01FFC0344
:101E8300FF80000000003800001E00000000007FFB
:101E9300FA1FFC2FFF00000000003800001E0000A6
:101EA3000000003FFF3FFE7FFE00000000003C00FB
:101EB300003C00000000003FFFFFFFFFFE000000AA
:101EC30000003E00003C00000000001FFFFFFFFF7A
:101ED300FC00000000001E00003C00000000001F8A
:101EE300FFFFFFFFFC00000000001E00007C00005D
:101EF3000000001FFFFFFFFFFC00000000001E00AA
:101F0300007C00000000000FFFFFFFFFF80000004F
:101F130000001F0000FC00000000000FFFFFFFFF98
:101F2300F800000000001F8000FC00000000000714
:101F3300FFFFFFFFF000000000001F8000F800001B
:101F430000000007FFFFFFFFF000000000000F800C
:101F530000F8000000000003FFFFFFFFE0000000A7
:101F630000000F8001F8000000000003FFFFFFFFE7
:101F7300C000000000001FC001F8000000000003C3
:101F8300FFFFFFFFC000000000000FC000F80000CB
:101F930000000003FFFFFFFFE000000000000F80D0
:101FA30001F800000000003FFFFFFFFFFE000000FC
:101FB30000000F8001F81C00000003FFFFFFFFFF7C
:101FC300FFC0000000000FC001FFFFF8000007FF83
:101FD300FFFFFFFFFFF0000003FFCFC001E7FFFF9C
:101FE30080005FFFFFFFFFFFFFFD0000BFFFF3C0A7
:101FF30001C7FFFFD001FFFFFFFFFFFFFFFFC0058A
:10200300FFFFF1C00007FFFFFE0FFFFFFFFFFFFF12
:10201300FFFFF83FFFFFF0000087FFFFFC07FFFF14
:10202300FFFFFFFFFFFFFC7FFFFFF08001C7FFFF04
:1020330000007FFFFFFFFFFFFFFFC000FFFFF1C0B6
:1020430001E7FFFE00003FFFFFFFFFFFFFFE000071
:102053003FFFF3C000F93E60000007FFFFFFFFFFF3
:10206300FFF0000013FFCF8001F80000000000FF25
:10207300FFFFFFFFFF80000000000F8001F800005A
:102083000000003FFFFFFFFFFE00000000000FC045
:1020930000F8000000000003FFFFFFFFE000000066
:1020A30000000F8000F8000000000001FFFFFFFFA9
:1020B300C000000000000F8001F8000000000003D2
:1020C300FFFFFFFFE000000000000FC001FC000065
:1020D30000000007FFFFFFFFF000000000001FC02B
:1020E30000FC000000000007FFFFFFFFF0000000FE
:1020F30000001F8000FC000000000007FFFFFFFF3F
:10210300F000000000001F80007C00000000000FB2
:10211300FFFFFFFFF000000000001F00007C000035
:102123000000000FFFFFFFFFF800000000001F008A
:10213300007C00000000001FFFFFFFFFFC00000009
:1021430000001F00003C00000000001FFFFFFFFF16
:10215300FC00000000001E00003C00000000003FE7
:10216300FFFFFFFFFE00000000001E00001C000038
:102173000000003FFFFFFFFFFC00000000001C0009
:10218300001E00000000003FFE3FFE3FFE00000077
:1021930000003C00001C00000000007FF83FFC0F23
:1021A300FF00000000001C00000C0000000000FF06
:1021B300E01FFC03FF00000000001800000C0000FB
:1021C300000000FF001FFC01FF800000000018005A
:1021D30000040000000000FE001FFC003F80000020
:1021E3000000300000020000000000F8001FFC00A7
:1021F3000F8000000000200000000000000001C06C
:10220300000FF80001C00000000000000000000003
:1022130000000300000FF800004000000000000071
:102223000000000000000000000FF80000000000A4
:102233000000000000000000000000000007F000A4
:1022430000000000000000000000800000001000FB
:102253000007E0000008000000008000000080008C
:10226300000030000003E000000600000000000052
:10227300000040000001E0000003E0000003C00094
:1022830000010000000060000003C0000003C00064
:102293000003E0000003000000007000000FC00016
:1022A3000003C0000001F8000007000000007800F0
:1022B300001F80000001C0000000FC00000F0000B0
:1022C30000003C0000FF0000000180000000FE0051
:1022D300001E000000007C0001FF000000008000E1
:1022E3000000FF00001E000000003C0003FF000090
:1022F3000000800000007FE0001E000000003E00A0
:1023030007FE00000000000000003FF0003C00005A
:1023130000001F000FFC00000000000000001FF879
:10232300007C000000000F801FF800000000000088
:1023330000001FFC00F8000000000FC03FF8000081
:102343000000000000000FFE01F8000000000FE095
:102353007FF0000000008000000007FF03F800008A
:1023630000000FF0FFE0000000008000000003FF0A
:1023730087F80000000007F9FFC00000000080009C
:10238300000001FFCFF00000000007FFFF80000006
:1023930000008000000000FF9FF00000000003FF2A
:1023A300FF000000000180000000007F9FE00000AC
:1023B300000001FCFE0000000001C0000000003F1F
:1023C3001FC00000000000FC7C0000000003E000D0
:1023D3000000001E1F80000000000078380000008D
:1023E3000007F0000000000C0F00000000000038A0
:1023F300100000000003E000000000040E000000D5
:1024030000000008700000000003E0000000000668
:102413000800000000000007F80000000007F000BB
:102423000000000FE000000000000003FC000000BB
:102433000007E0000000001FE000000000000003B0
:10244300FE0000000007F0000000003FE000000075
:1024530000000001FF0000000007F0000000007F03
:10246300C000000000000000FF8000000007F00033
:10247300000000FF80000000000000007FC000009B
:10248300000FF000000001FF00000000000000004A
:102493003FE00000000FF000000003FE000000001A
:1024A300000000001FFC0000000FF00000001FFCF4
:1024B300000000000000000007FE0000000FF00015
:1024C30000003FF0000000000000000000FF0000DB
:1024D300000FF00000007F800000000000000000FB
:1024E300003F8000000FF0000000FE00000000002D
:1024F30000000000000FC000000FF0000001F80012
:1025030000000000000000000000F0000007F000E1
:102513000007800000000000000000000000000031
:102523000007F000000000000000000000000000B1
:102533000000008C0007F00008800000000000008D
:10254300000000000000007FF807F00FFF0000000C
:1025530000000000000000000000001FFF9414FFB3
:10256300FC00000000000000000000000000000F5D
:10257300FFF80FFFF800000000000000000000005B
:1025830000000001FFFC1FFFC0000000000000006E
:102593000000000000000000FFFE3FFF800000007D
:1025A3000000000000000000000000000FFF7FF8A3
:1025B3000000000000000000000000000000000018
:1025C30003FF7FE0000000000000000000000000A7
:1025D30000000000001224000000000000000000C2
:1025E30000000000000000000000000000000000E8
:1025F30000000000000000000000000000000000D8
:1026030000000000000000000000000000000000C7
:1026130000000000000000000000000000000000B7
:1026230000000000000000000000000000000000A7
:102633000000000000000000000000000000000097
:102643000000000000000000000000000000000087
:102653000000000000000000000000000000000077
:102663000000000000000000000000000000000067
:102673000000000000000000000000000000000057
:102683000000000000000000000000000000000047
:102693000000000000000000000000000000000037
:1026A3000000000000000000000000000000000027
:1026B3000000000000000000000000000000000017
:1026C3000000000000000000000000000000000007
:1026D30000000000000000000000000000000000F7
:1026E30000000000000000000000000000003FFEAA
:1026F30000000000000000000000000000000000D7
:102703000003FFFF000000000000000000000000C5
:1027130000000000003FFFFFE00000000000000099
:1027230000000000000000013077FFFF8FC00000B1
:1027330000000000000000000000017FE0007FFFB8
:102743008FF00000000000000000000000001FFFE9
:10275300400000FE0FFC000000000000000000002D
:1027630000007FFF0000000E0FFC000000000000CF
:10277300000000000003FFFC0000000007FF8000D2
:1027830000000000000000000003FFE00000000361
:10279300C7FF800000000000000000000007FF00EA
:1027A30000000007F9FFE000000000000000000047
:1027B300003FFC0000000007F81FF00000000000CD
:1027C3000000000000F0E00000000007F803F8003C
:1027D300000000000000000001F040000000000FB6
:1027E300F001FC00000000000000000007E0C00052
:1027F3000000000FF0003F00000000000000000098
:102803000FE3E0000000000FF000030000000000F1
:10281300000000001FF7E0000000000FE00001804F
:1028230000000000000000007FDFF0000000001F38
:10283300E000000000000000000000007F8FF800AF
:102843000000001FE0000000000000000000000086
:102853007F0FFC000000001FE000000000000000EC
:1028630000000000FC07FC000000001FC000000681
:102873000000000000000003F807FE000000003F16
:10288300C00000030000000000000003F807FE0082
:102893000000001FC0000001C00000000000000392
:1028A300E003FE000000001FC0000001E000000084
:1028B3000000000F8001FF000000003F80000001C6
:1028C300F80000000000000F8001FF800000003FBF
:1028D30000000000FC0000000000001C0000FF805E
:1028E3000000003F00000000FE0000000000001098
:1028F30000007F800000001E000000003F800000F9
:102903000000003000003F800000003E0000000097
:102913001F8000000000000000003FC00000003CDA
:10292300000000001FC000000000000000001F8026
:102933000000003C000000000FE000000000000069
:1029430000000F80000000180000000007F00000E6
:1029530000000100000003C0000000380000000078
:1029630003F8000000000000000001E00000003058
:102973000000000001F8000000000600000000E075
:10298300000000300000000000FC000000000C000C
:10299300000000E0000000000000000000FE000056
:1029A30000001C0000000070000000000000000098
:1029B300007E00000000180000000030000000004E
:1029C3000000000000440000000078000000001038
:1029D300000000000000000003C300000000F80036
:1029E3000000000000000040000000000FC3800052
:1029F3000000F80000000000000000C0000000001C
:102A03001FE380000003F00000000004000000C08A
:102A1300000000007FE3C0000003E00000000002AC
:102A2300000001C000000001FFFFC0000007E0003C
:102A330000000002000003C000000003FFF7E000F5
:102A43000007C00000000003800007E00000000F43
:102A5300FFE7E000001FC00000000003C00007E024
:102A63000000001FFFC3F000001FC00000000001B2
:102A7300E0000FE00000003FFF01F000001FC00076
:102A830000000001F0001FE00000007FFE01F000E5
:102A9300001F800000000001FC003FE0000000FF79
:102AA300F801F800003F800000000001FC003FE057
:102AB300000000FFE001F800003F8000000000017B
:102AC300FF807FE0000003FF0001F800003F80006B
:102AD30000000000FF80FFE0000007E40000F800B2
:102AE300003F000000000001FFC1FFF000000E00E6
:102AF3000000F800003CE00000000001FFE1FFF0EF
:102B030000001E00000078000020FC000000000010
:102B1300FFFBFFE000000000000038000020FFC0C2
:102B230000000000FFFFFFF00002800000003C00F7
:102B33000061FFFC00000000FFFFFFF0003F00000A
:102B430000003C0000E1FFFC00000000FFFFFFF07D
:102B530007FE000000001C0000F9FFFFC00000009A
:102B63007FFFFFF1FFFC000000000C0000FFFFFFF0
:102B7300C00000007FFFFFFFFFFC000000000C000F
:102B830001FCFFFFF80000007FFFFFFFFFF00000E4
:102B930000000C0001FC1FFFFC0000007FFFFFFF93
:102BA300FFE000000000040001FC01FFFF800003C0
:102BB300FFFFFFFFFFE000000000000001F8001925
:102BC300FF8013FFFFFFFFFFFFC0000000000000B6
:102BD30001F800000007FFFFFFFFFFFFFF80000079
:102BE3000000000001F800000003FFFFFFFFFFFFEC
:102BF300FF0000000000000001F800000001FFFFDB
:102C0300FFFFFFFFFE0000000000000001F00000D6
:102C130000007FFFFFFFFFFFFC000000000000003B
:102C230001F0000000007FFFFFFFFFFFF80000003E
:102C33000000020001F0000000001FFFFFFFFFFF84
:102C4300F80000000000020000E00000000007FFA1
:102C5300FFFFFFFFE00000000000020001E00000B2
:102C6300000003FFFFFFFFFFE0000000000007007C
:102C730000F00000000000FFFFFFFFFFF80000006E
:102C83000000070000F00000000000FFFFFFFFFF4F
:102C9300FC00000000000700006000000000003F8F
:102CA300FFFFFFFFFF0000000000070000E000003F
:102CB3000000000FFFFFFFFFFF8000000000070080
:102CC300006000000000000FFFFFFFFFFFC00000D7
:102CD300000007800060000000000007FFFFFFFF07
:102CE300FFF0000000000780004000000000000F1C
:102CF300FFFFFFFFFFF0000000000F8000600000F7
:102D03000000001FFFFFFFFFFFFE000000000F8019
:102D1300006000000000003FFFFFFFFFFFFF000017
:102D230000000FC0002000000000007FFFFFFFFF36
:102D3300FFFF000000000F8000000000000000FF04
:102D4300FFFFFFFFFFFFE00000001FC000000000C7
:102D5300000001FFFFFFFFFFFFFFE00000001FC0B7
:102D630000200000000001FFFFFFFFFFFFE402FF60
:102D7300E4001FC000000000000003FFFFFFFFFF8F
:102D8300E40000FFFFC01F8000100000000007FFE9
:102D9300FFFFFFFE0000007FFFFC3F8000300000CC
:102DA30000000FFFFFFFFFFE0000000FFFFFBF80CB
:102DB3000010000000000FFFFFFFFFFE00000007F0
:102DC300FFFF9F800018000000003FFF87FFFFFF09
:102DD30000000000FFFF8F00001C000000003FF018
:102DE30007FFFFFF000000003FFF8700003C0000DB
:102DF30000007B000FFFFFFF000000001FFF8200A9
:102E0300001C00000001000007FFFFFF800000001E
:102E130001FF0000001E00000000000007FFEFFF9D
:102E230080000000001F0000001E000000100000D2
:102E330007FFCFFF8000000000039C00001F00007D
:102E430000F0000007FF83FF800000000000FE0089
:102E5300001F80001FE0000007FF01FF800000004B
:102E63000000FC00001F8000FFC0000007FF00FF00
:102E7300800000000001FC00000F0003FF000000C1
:102E830003FE007F800000000001FC00001F80178C
:102E9300FE00000007FC001FC00000000001FC0052
:102EA300000F807FFE00000007F8001FC000000035
:102EB3000001F800000FC0FFFC00000003F800074A
:102EC300C00000000003F800000FC1FFF80000007D
:102ED30003F00003C00000000003F0000007E3FF5D
:102EE300F000000007E00001C00000000003F00054
:102EF3000003FFFFE000000003E00000E00000002B
:102F03000003E0000003EFFF8000000003C00000A7
:102F1300200000000007C0000003E7FF00000000DE
:102F230003800000200000000007C0000003C3FE70
:102F3300000000000300000000000000000F8000FC
:102F43000001C3E0000000000300000000000000D7
:102F5300001F0000000041C000000000000000004E
:102F630000000000001E000000003100000000000F
:102F73000000000004000000001E000000007F00AD
:102F83000000000000000000060000000018000020
:102F930000007F00000000000000000007000000A8
:102FA3000030000000001F8000000000040000004B
:102FB300030000000020000000001F80000000004C
:102FC3000C00000003E000000040000000000FC000
:102FD300000000000C00000003F0000000000000EF
:102FE30000000FF0000000001C00000003F00000D0
:102FF30000000000000007F8000000001C000000B3
:1030030003F8000000000000000003F800000000C7
:103013003C00000003FC000000000000000001FC75
:10302300000000003C00000001FE0000040000005E
:10303300000000FC000000007C00000001FE000016
:103043000C0000000000007E00000000FC000000F7
:1030530001FF0000300000000000001F800000009E
:10306300FC00000000FF0000F00000000000000F63
:1030730000000001FC00000000FF8001F0000000E0
:103083000000000780000001F8000000007FC00777
:10309300F00000000000000380000003F8000000BF
:1030A300007FC01FC000000000000000C00000033C
:1030B300FC000000003FE01FC00000000000000013
:1030C30020000003FC000000003FE03F8000000000
:1030D3000000000000000003F8000000001FF07F64
:1030E300000000000000000000000007F8000000DE
:1030F300001FF9FE000000000000000002000007AE
:10310300F8000000000FFBFE0000000000000000BC
:1031130001000007F80000000007E7FC00000000C2
:103123000000000000E00007F00000000003C7F00B
:103133000000000000000000007E000FF00000000F
:10314300000307E00000000000000000003E000F45
:10315300F0000000000107E0000000000000000094
:10316300001FC00FF000000000078E0000000000E9
:1031730000000000000FFC1FE0000000001FF20031
:1031830000000000000000000007FFDFE000000077
:1031930001FFF00000000000000000000001FFF349
:1031A300E000000007FFE000000000000000000056
:1031B3000000FFF0600000001FFF8000000000001F
:1031C3000000000000007FF078000000FFFF000017
:1031D300000000000000000000001FF0FF8000015D
:1031E300FFF80000000000000000000000001FF8CE
:1031F300FFFB0003FF400000000000000000000090
:10320300000001FFFFFFF104600000000000000068
:103213000000000000000003FFFFFA0000000000B0
:10322300000000000000000000000001FFFFC000DC
:10323300000000000000000000000000000000008B
:103243003FF200000000000000000000000000004A
:10325300000000000000000000000000000000006B
:10326300000000000000000000000000000000005B
:10327300000000000000000000000000000000004B
:10328300000000000000000000000000000000003B
:10329300000000000000000000000000000000002B
:1032A300000000000000000000000000000000001B
:1032B300000000000000000000000000000000000B
:1032C30000000000000000000000000000000000FB
:1032D30000000000000000000000000000000000EB
:1032E30000000000000000000000000000000000DB
:1032F30000000000000000000000000000000000CB
:1033030000000000000000000000000000000000BA
:1033130000000000000000000000000000000000AA
:10332300000000000000000000000000000000009A
:10333300000000000000000000000000000000008A
:10334300000000000000000000000000000000007A
:10335300000000000000000000000000000000006A
:10336300000000000000000000000000000000005A
:10337300000000000000000000000000000000004A
:1033830007D400000000000000000000000000005F
:10339300000000007FFFA00000000000000000000C
:1033A3000000000000000001FFFFFE00000000001D
:1033B30000000000000000000000003DFFFFFE0AC7
:1033C300FA8000000000000000000000000003FC81
:1033D3007FFFC007FFF800000000000000000000AE
:1033E300000007F81FD000007FFF0000000000006E
:1033F3000000000000001FF8200000001FFFC000B5
:10340300000000000000000000003FF0F00000009A
:1034130007FFE00000000000000000000000FFEFD5
:10342300F000000002FFF0000000000000000000B8
:103433000001FF0FF0000000003FF8000000000053
:10344300000000000003FE07F8000000000FF0007A
:103453000000000000000000000FF807F800000063
:103463000003C3E00000000000000000000FC007DD
:10347300FC000000000101F000000000000000005B
:10348300003F0007FC000000000003FC00000000F8
:103493000000000000600007FC0000000001C3FC06
:1034A300000000000000000000400007FC000000D6
:1034B3000003F3FF00000000000000000000000311
:1034C300FC0000000007FFFF0000000000000000F8
:1034D30000000003FC0000000007FCFF8000000068
:1034E3000000000000000003FE000000000FF83F92
:1034F300C00000000000000038000001FE000000D2
:10350300000FF01FE0000000000000006000000159
:10351300FE000000001FF007E000000000000000B4
:10352300C0000000FE000000001FE003F0000000E8
:1035330000000003C0000000FE000000003FE001A7
:10354300F00000000000000F80000000FE000000FB
:10355300007FC000F80000000000003F8000000072
:103563007E000000007FC0003C0000000000007FE0
:10357300000000003C000000007F80000E000000FF
:10358300000000FE000000001E000000007F00009D
:1035930006000000000001FC000000001E00000007
:1035A30000FF000006000000000003F80000000018
:1035B3000E00000000FE000001000000000007F8FC
:1035C300000000000E00000001FC000000000000ED
:1035D300000007F0000000000E00000000F80000EB
:1035E3000000000000000FF00000000006000000D3
:1035F30001F000000000000000001FE000000000D8
:103603000200000001F000000020000000001FC0C5
:10361300000000000200000003C0000000180000CA
:1036230000001FC0000000000000000003C00000F5
:103633000018000000001F800000000000000000D0
:1036430003800000000C0000000020C00000000008
:103653000100000006000000001E0000000020F032
:10366300000000000000000006000000000F000042
:103673000000E0F8000000000180000004000000EA
:10368300000F80000001F1FE000000000080000038
:1036930000000000000F80000001F1FF8000000027
:1036A30001C00000000000000007C0000003FBFF92
:1036B300E000000001E00000100000000003E00053
:1036C3000003FFFFF000000001F0000030000000E5
:1036D3000003F0000007F9FFF800000001F000000C
:1036E300600000000003F0000007F07FFC00000012
:1036F30001F80000F00000000001F0000007E03FC7
:10370300FF00000001FC0003E00000000001FC00DA
:10371300000FE00FFF80000001FC0007E000000045
:103723000000FC00000FC003FF80000001FE000F3B
:10373300E00000000000FC00000FC000FFE00000FC
:1037430003FF003FE000000000007C00000F80004A
:103753007FF0000001FF807FE000000000007E009A
:10376300000F800007F0000003FF80FFE00000006F
:1037730000007F00000F0000007C000003FFC1FF7A
:10378300C000000000003F00000E00000006000023
:1037930003FFC7FFC000000000016F00000F00001F
:1037A3000000000003FFE7FFC0000000001FC2008D
:1037B300000E00000000000003FFFFFFC000000038
:1037C30000FFC000000E000000003E8001FFFFFF6D
:1037D300C00000000FFFE300000C000000001FFE0C
:1037E30003FFFFFF800000003FFFE380000C0000A9
:1037F30000001FFFF3FFFFFF800000007FFFE78053
:1038030000180000000007FFFFFFFFFF800000011A
:10381300FFFFFF8000080000000007FFFFFFFFFF1E
:1038230080000003FFFF8F8000180000000003FFEB
:10383300FFFFFFFF0000001FFFFF8FC00008000015
:10384300000001FFFFFFFFFF8000003FFFF80FC0F4
:1038530000000000000000FFFFFFFFFFFFA800F0D3
:10386300BC8007C0000000000000007FFFFFFFFFD7
:10387300FFFFFC00000007C0000000000000007F05
:10388300FFFFFFFFFFFFF000000007C00000000084
:103893000000003FFFFFFFFFFFFFC00000000FC05D
:1038A300001000000000001FFFFFFFFFFFFFC0002C
:1038B30000000FC0001000000000000FFFFFFFFF1B
:1038C300FFFF0000000007C0003000000000000FF1
:1038D300FFFFFFFFFFFC0000000007C00010000017
:1038E30000000007FFFFFFFFFFF00000000007805C
:1038F3000038000000000003FFFFFFFFFFE00000AF
:10390300000007800038000000000003FFFFFFFFF6
:10391300FFC0000000000380007800000000000FDB
:10392300FFFFFFFFFF0000000000038000380000DE
:103933000000003FFFFFFFFFFE00000000000780C4
:1039430000780000000000FFFFFFFFFFF800000009
:103953000000038000780000000001FFFFFFFFFF6D
:10396300F000000000000100007C0000000003FFE5
:10397300FFFFFFFFF80000000000018000FC0000D3
:1039830000000FFFFFFFFFFFFE0000000000030029
:10399300007C000000000FFFFFFFFFFFFE000000A0
:1039A3000000010000FC000000003FFFFFFFFFFFDD
:1039B300FF00000000000000007800000000FFFF8F
:1039C300FFFFFFFFFF0000000000010000FC0000FC
:1039D3000001FFFFFFFFFFFFFFC00000000000002A
:1039E30000FC00004003FFFFFFFFFFFFFFC00000DC
:1039F30000000000007C001FE7800AFFFFFFFFFFBD
:103A0300FFE0000000000200007C07FFFF800000D1
:103A13003FFFFFFFFFE0000000000200007E0FFFFA
:103A2300FC0000003FFFFFFFFFF800000000000064
:103A3300007EFFFFF00000003FFFFFFFFFF80000E4
:103A430000000200007DFFFFC00000007FFFFFFFBA
:103A5300FFFC0000000006000078FFFFC00000002C
:103A63003FFFFFFDFFFC0000000006000038FFFFE2
:103A7300000000007FFFFFF007FF000000000E00C2
:103A83000030FFF8000000007FFFFFF0003F8000E0
:103A930000000E000000FFC0000000007FFFFFF0E9
:103AA3000000800000001E0000187F80000000005E
:103AB300FFFEFFF80000000000001E00001EC00013
:103AC300000000007FF8FFF000000E0000001E0061
:103AD300001F800000000000FFE07FF0000007C02F
:103AE30000003E00000F800000000000FFE07FF0B8
:103AF300000003FC00003C00001FC00000000000A9
:103B0300FF803FF0000001FF00007E00000FC000B7
:103B130000000000FF001FF0000000FFF0007C0029
:103B23000007C00000000001FE000FF00000007F4E
:103B3300F800FE000007E00000000000F8000FE0BE
:103B43000000003FFE00FC000007F0000000000141
:103B5300F80007F00000000FFF81FC000007F000F1
:103B630000000001F00007E000000007FFE3FC0095
:103B73000001F80000000001C00003F0000000078E
:103B8300FFF3F8000001F80000000001800001E0ED
:103B930000000001FFF7F8000000F800000000013A
:103BA300000001F0000000007FF3F0000000F800C7
:103BB30000000000000000E0000000003FF1F00002
:103BC30000003C0000000000000000600000000056
:103BD3000FE0E00000003E000000000800000020AD
:103BE3000000000003C0E00000001C000000000C07
:103BF300000000200000000000C0800000001E0044
:103C03000000001800000000000000000040000059
:103C1300000006000000007000000000000000002B
:103C2300007F00000000060000000070000000009C
:103C330000000000007F000000000300000000F00F
:103C4300000000000000000000FF00000000000072
:103C5300000001F0000000080000000001FE000069
:103C630000000080000003E00000000800000000E6
:103C730001FC000000000000000007E00000000C51
:103C83000000000003FC00000000000000000FE043
:103C93000000000C0000000003F80000000000100A
:103CA30000001FE00000000C0000000007F8000007
:103CB3000000001000001FC00000000F0000000003
:103CC30007E000000000000C00003FC00000000FF0
:103CD300800000000FC000000000000E00007FC045
:103CE3000000001F800000003F800000000000076C
:103CF30080007FC00000001F800000003F00000024
:103D030000000007C000FF800000000FC00000009B
:103D13007C00000000000003E000FF000000000F33
:103D2300E00000007800000000000001F001FF0047
:103D33000000001FE0000000F00000000000000190
:103D4300FC01FE000000000FE00000018000000005
:103D5300000000007F03FE000000000FF0000000E1
:103D630000000000000000007FC7FC000000000FFF
:103D7300F000000600000000000000003FE7FC0028
:103D83000000000FF0000000000000000000000031
:103D93003FFFF8000000000FF000000000000000EB
:103DA300000000001FF9F0000000000FF8000040C1
:103DB30000000000000000001FF870000000000772
:103DC300F8000780000000000000000007F8200052
:103DD30000000007F8001E000000000000000000C3
:103DE30001F0300000000007F801FE0000000000B1
:103DF300000000000078FC0000000007FC07FC0046
:103E03000000000000000000000FFE00000000039F
:103E1300FC0FF00000000000000000000003FF8022
:103E230000000003FC3FF000000000000000000061
:103E33000003FFE000000001FFFFC00000000000DE
:103E4300000000000001FFFA0000000183FF800072
:103E5300000000000000000000007FFF00000003DE
:103E630003FF0000000000000000000000001FFF2F
:103E7300C00007DF87FC0000000000000000000016
:103E8300000001FFF001FFFFC7E000000000000099
:103E9300000000000000000FBE17FFFFFEC000007F
:103EA300000000000000000000000000000BFFFF06
:103EB300E20000000000000000000000000000001D
:103EC3000000FFFF200000000000000000000000D1
:103ED30000000000000002B200000000000000002B
:103EE30000000000000000000000000000000000CF
:103EF30000000000000000000000000000000000BF
:103F030000000000000000000000000000000000AE
:103F1300000000000000000000000000000000009E
:103F2300000000000000000000000000000000008E
:103F3300000000000000000000000000000000007E
:103F4300000000000000000000000000000000006E
:103F53000000000000000000AAAAAAAAAAAAAAAA0E
:103F6300AAAAAAAAAAAAAAAAAAAAAAAAAAAAAAAAAE
:103F7300AAAA555555556AAAAAAA540000056AAAC1
:103F8300AAAA555555556AAAAAAA94000005AAAA31
:103F9300AAAA94000005AAAAAAAA94444445AAAAD4
:103FA300AAAA94111105AAAAAAAA95044415AAAA11
:103FB300AAAAA5411056AAAAAAAAA950415AAAAACE
:103FC300AAAAAA54056AAAAAAAAAAA9405AAAAAA44
:103FD300AAAAAA9405AAAAAAAAAAAA9445AAAAAA74
:103FE300AAAAAA9405AAAAAAAAAAAA50016AAAAA2C
:103FF300AAAAA940405AAAAAAAAAA5001016AAAA20
:10400300AAAA94000005AAAAAAAA94044405AAAAE3
:10401300AAAA94111105AAAAAAAA94444445AAAA31
:10402300AAAA95111115AAAAAAAA555555556AAA5D
:10403300AAAA540000056AAAAAAA555555556AAA00
:10404300AAAAAAAAAAAAAAAAAAAAAAAAAAAAAAAACD
:10405300AAAAAAAAAAAAAAAAAAAAAAAAAAAAAAAABD
:10406300AAAAAAAAAAAAAAAAAAAAAAAAAAAAAAAAAD
:10407300AAAAAA9555AAAAAAAAAAA940005AAAAA6C
:10408300AAAA94000005AAAAAAAA400000006AAA44
:10409300AAA9001555001AAAAAA4006AAA5006AA3A
:1040A300AAA4006AAAA406AAAA90001AAAA901AA05
:1040B300AA901006AAA901AAAA406401AAAA406A62
:1040C300AA4069006AAA406AAA406A401AAA406ADA
:1040D300AA406A9006AA406AAA406AA401AA406A52
:1040E300AA406AA9006A406AAA406AAA401A406ABA
:1040F300AA901AAA900501AAAA901AAAA40001AA32
:10410300AAA406AAA90006AAAAA4016AAA4006AA02
:10411300AAA9001555001AAAAAAA400000006AAA73
:10412300AAAA94000005AAAAAAAAA940005AAAAA60
:10413300AAAAAA9555AAAAAAAAAAAAAAAAAAAAAA46
:10414300AAAAAAAAAAAAAAAAAAAAAAAAAAAAAAAACC
:10415300AAAAAAAAAAAAAAAAAAAAAAAAAAAAAAAABC
:104163006AAAAAAAAAAAAAAA5AAAAAAAAAAAAAAA3C
:1041730046AAAAAAAAAAAAAA41AAAAAAAAAAAAAA69
:10418300406AAAAAAAAAAAAA401AAAAAAAAAAAAA30
:104193004006AAAAAAAAAAAA4001AAAAAAAAAAAA9D
:1041A30040006AAAAAAAAAAA40001AAAAAAAAAAA64
:1041B300400006AAAAAAAAAA400001AAAAAAAAAAD1
:1041C3004000006AAAAAAAAA4000001AAAAAAAAA98
:1041D30040000006AAAAAAAA40000001AAAAAAAA05
:1041E300400000006AAAAAAA400015555AAAAAAA22
:1041F30040101AAAAAAAAAAA406406AAAAAAAAAA04
:1042030041A406AAAAAAAAAA46A901AAAAAAAAAA2C
:104213005AA901AAAAAAAAAA6AAA406AAAAAAAAADF
:10422300AAAA406AAAAAAAAAAAAA901AAAAAAAAA3F
:10423300AAAA901AAAAAAAAAAAAAA406AAAAAAAA2F
:10424300AAAAA406AAAAAAAAAAAAA95AAAAAAAAAC6
:10425300AAAAAAAAAAAAAAAAAAAAAAAAAAAAAAAABB
:10426300AAAAAAAAAAAAAAAA96AAAAAAAAAAAAAABF
:10427300916AAAAAAAAAAAAAA415AAAAAAAAAAAA8F
:10428300A4006AAAAAAAAAAAA9011AAAAAAAAAAAB5
:10429300A90046AAAAAAAAAAAA4051AAAAAAAAAA4D
:1042A300AA90146AAAAAAAAAAAA4051AAAAAAAAA96
:1042B300AAA90146AAAAAAAAAAAA4051AAAAAAAA2C
:1042C300AAAA90146AAAAAAAAAAAA4051AAAAAAA76
:1042D300AAAAA90146AAAAAAAAAAAA4051AAAAAA0C
:1042E300AAAAAA901469AAAAAAAAAAA401146AAAA1
:1042F300AAAAAAA900441AAAAAAAAAAA401106AA63
:10430300AAAAAAAA900441AAAAAAAAAAA401106ABC
:10431300AAAAAAAAA900441AAAAAAAAAAA40111A2E
:10432300AAAAAAAAAA90041AAAAAAAAAAAA4011A79
:10433300AAAAAAAAAAA9001AAAAAAAAAAAAA406ABF
:10434300AAAAAAAAAAAA95AAAAAAAAAAAAAAAAAADF
:10435300AAAAAAAAAAAAAAAA6C517472749274727B
:104363007451745174727C926C3163CF534D4B2DE5
:104373005B8F7C7295359D759D959D959D759D95DE
:10438300A5D7AE18A5D795757C92430C2A2932AAD6
:10439300430C42EC326A19E722482A69538F6C3383
:1043A300536F4B6E2207220632893A8B3A8D2A2CA1
:1043B300116921E922274B8C4B6D3B0C19E8014510
:1043C30011C7226A2A6A224A19E911C82A6B4B8F3C
:1043D300641174B38D35957695779DB8A5D8957787
:1043E30084D463F1430D324A2A2A3AAC536F4B4FBC
:1043F300430E3ACD2A4B3ACD6C3174727CB27CB207
:104403007492747274927C926C1063CF536E534D9A
:1044130063CF7C928D3595559D969D959D759D9504
:10442300ADF7B638AE179DB674714B2C2A49326A74
:1044330032AB3AAB326A220819E73AEB5BD07473BA
:1044430063F13ACC19A62A273ACA326A3A8D21CBAC
:10445300116911883ACA434B4B6D3B0C19E8096546
:1044630019E82A8A2A8B226A11C811A82A6B538F4A
:1044730064317CB38D3595769DB89DB89DB89556BE
:1044830084D46C11430D2A2A2A4B3ACC4B4F430E4A
:1044930042ED3AAC2A4B3ACD74727C927CB384F4ED
:1044A3008D148D1484F484F4747274516C316C1112
:1044B3007C728CF495559D769D759D759D759D9526
:1044C300A5D7AE18A5F79DB67492538E42EC32ABC6
:1044D300328B3ACB3ACC2A6932CA32AA6C526C3349
:1044E3006C325B8F21E72A073A8A324A21CA2A0CA7
:1044F300114911884B4D53AD5BCE4B4D222811868C
:104503001A082A6A224A1A0919C819E832AC5BD078
:104513006C527CB48D358D569577957795568D363F
:1045230084D56C324B2E2A4A2209324B3ACD3AAC0F
:104533003AAC328C220A326C7CB37472747284D3B8
:1045430095559D969D9695768D148D159535955516
:1045530095769D969D969D55953495549D759D751F
:104563009D759D7595558D347CD36C315BAF4B4DEB
:10457300430D4B6E536E430C538E4B4C74737474D8
:104583007433534E42CB21C642CA63AF21CA5B7117
:104593002A2C3AAC4B4D5BCE6410538E326A220800
:1045A3002A6A32CB2A8B2A4A2229224A430D63F1F3
:1045B3006C527CB384F484D484D484D484D484F5BA
:1045C3008D157C93536F328B198821E93A8C3AAC61
:1045D30042ED42CD2A2B326B84D36C3063CF7451BE
:1045E3008D149D969D969D769D96A5D7B618B63942
:1045F300AE18ADD79D7695358D1495559D969D76C0
:104603008D1484B27C727C927CB374726C3163F0CF
:104613005BD06C316C525BAF3289747163F16BF2B6
:1046230074533A4B4AEC2A08CEDBE7DF5B705B50EE
:104633004ACE6BD16BF05BAE6C305BCF430C3ACBA5
:104643004B4E53AF4B8F4B6E32AC32AC4B4E64116F
:104653006C52747274726C316C1174527C938CF55D
:104663008D3684D45BB03AAC21C82A4A4B0E536FC3
:104673005BD05B903ACD3ACD8CF46C305B8E6C1092
:1046830084D395559D769D76ADD7B659C6BBC6BB2B
:10469300BE7AAE18A576953595149D559D969D7554
:1046A30084D3741063F06C1074516C31745274724F
:1046B30074527CB37CD474528D345BAF5BB095572A
:1046C300E7BF7C933208D73CE7BEF7FF94F56BB1A5
:1046D300A578D71EDF5E95557C9274515BAF538EE0
:1046E30064116C526C326C325BB0538F63F1747330
:1046F3007CB37CB374926BF06BF1745284B48D36DB
:10470300955684D45BB03AAC324B42CD63D16C1234
:1047130074736C324B2E4B2E95357C9274107C72D5
:104723008CF4953595559D76ADD7B639C69AC69A0C
:10473300BE39ADD79D76953595559D559D55953586
:104743007C926BF063AF63AF6C1174317CB384D430
:104753007C937CB384F484D484D36C3184D4530E9B
:10476300ADF9F7FF8493EFBFEFBFFFFFDF3DD71D29
:10477300F7FFF7FFDF5E7C519555951484B37C7288
:1047830084D47CD47CB484F47CB474737CB38515F6
:104793008D3695568CF474526C117C938D159D77E0
:1047A300955784D463D042ED4AED536F6C32745302
:1047B3007C947453536F538F955584D3849284D3CD
:1047C3008D148CF48D1495359D76ADD8B639B61805
:1047D300ADB7A5769D3595149D76955595148CF4B6
:1047E3007C726BF05B8F5B8E74317C728CF58D15F4
:1047F3007CB37C9384D48D1595769D97849363B015
:104803008CD5F7DFEFDFF7BFFFFFE75CD6FBFFFFDA
:10481300E75DDF3DE73EADD8ADB7A5B795569555F6
:104823009D969D9795779DD88D5684F484F59556DE
:104833009D979DB795567C93743284D49D569D97CE
:104843009D7784D46BD14B2E534F63B074737C73B9
:104853007CB47C7363B063F194F495359D559D7579
:10486300A576A5969D558CD37C728CF4A576A596DA
:104873009D55951494F49514A576ADD7A5979514E5
:1048830084926BF063AF6BF07C728CD49556953544
:104893007C726BF084B3A5D7A5D7A5978CD473D0BE
:1048A300BE19FFFFEF7EF7BFF7BEFFFEFFFEF7BDAA
:1048B300F7BEF7DFF7BFE75EF7FFADD7B618B65918
:1048C3009D76ADF9B65A95778D368D158D1595561E
:1048D300A5D8A5D895357C7274118CD49D97A5B8AD
:1048E3009D7784D46C115B8F5B6F63F17C9384F54C
:1048F30084D474736C326C32A5968CD384929514E1
:10490300A596A57695148CF38CD38CB38CB3849233
:1049130084928CB394F49D35ADD7B639B619A59767
:104923009515847274117C5194F48CD48CF4951580
:10493300849374117C929D76A596A5767C31BE19DD
:10494300F7FFEF7FFFFFFFFFFFDEF7BCFFDCFFFC9E
:10495300FFFDFFDDFFBEFFDFF7DFB5F89D55ADB708
:10496300B619ADF8A5B8B65A9D7795568CF584D48B
:104973008D1595358CF47C727C528CF5A597ADD84A
:10498300A5B895367C736BF16BD1743284B48D36D4
:104993008D3684D57CB47CB4951495149D55A57639
:1049A300A596A576A576A576A5769D3594F494F47B
:1049B3009D35AD96B5D8B618BE18C67ABE59B5F8AA
:1049C300A596951494D495149514ADB7A5767C311A
:1049D3006BAF84529D56ADB7ADD8A57694D4B5F8D8
:1049E300E75DFFBFFFDFEF3DFFDDFFBBFFDAFFDA70
:1049F300FFDAFFDCFFBEFFDFFFFF9D359D15BE59CC
:104A0300BE39B5F8ADD8ADD8A5B89D7684D47C733E
:104A130074527C727C727C5284939515A597ADF881
:104A2300ADF9A5B7951584937C7384948CF59D5744
:104A33009D779D57953695368CD38CB394D39D55DE
:104A4300A5769D5595149D14A556A596B5F8CE9BB0
:104A5300E75DF7DFFFFFFFFFF7DFF7DFDF3DC65A55
:104A6300B5B79D3594D49D149D15A57694F46BAF7D
:104A7300632D7C1094D49D14ADB7B5D8AD969D1419
:104A8300AD55E71CFFFFFFDEFFBCFFDBFFD9F7B728
:104A9300F798FFDAFFBDF77DDEDB84318452A5761C
:104AA300A576B619BE5AA5B8A5B8955684B47C5256
:104AB30074327C527C5274318CD49515A597ADD841
:104AC300B619B619A5B8953695168D1595369D77F1
:104AD300A5B8A5B8A5B8A5B89D3594F49D35ADB7CF
:104AE300A5558CB29D55CE9AEF9EEFBFF7DFFFFF22
:104AF300FFFFF7DFEF9EE75DF7DFF7DFE75DCE9AB6
:104B0300C639B5D7AD96B5B7B5D784517BF0A555A2
:104B1300C619B5B7AD96BE19BE19D6DCB5B6C6383B
:104B2300A4F38C51FF7EFFBEFFBBF798F775F79593
:104B3300FFB6FF98FF9BFF9DFFFFFFDFDEDCAD9716
:104B4300AD97B5F8A577ADB8A5B8953684B37C73A2
:104B530084938CD48CF48CF49D56A597ADD8B61958
:104B6300B619B619ADF9A5B8A5B8A5979D77A598B7
:104B7300A5D8ADF9ADF9AE19A555ADB6ADB7A575C7
:104B8300A576BE59E75DFFFFEFBFEFBFF7DFF7DFA6
:104B9300F7DFF7DFFFFFFFFFEF9EF7DFFFDFFFDF4B
:104BA300FFFFFFFFFFFFFFFFE73DBDF8BDD7EF5D51
:104BB300FFFFF7DFF79EFFFFFFFFFFFFF7BEFFFFDC
:104BC300EF3CD639FF9EFFDEFF9AE6B4DE91EF524B
:104BD300F794EF35F739FFDEEF5DFFFFFFDFBE1917
:104BE3009D15A597ADB8ADB8ADB895368CD48CD41A
:104BF30095159D76A5B7ADD8ADF8BE39BE5AB63971
:104C0300ADF9ADD8ADD8ADD8B619ADD8A5B8A5B85E
:104C1300ADF9ADF9AE19B63AA5769D148CB39D14D2
:104C2300CEBBFFFFFFFFE73DFFFFF7FFF7BFF79F98
:104C3300EF9EF79FF7BFF7BFEF5DF79EF79EF7BFB6
:104C4300FFDFF7BFEF7EEF7EFFFFFFFFFFFFF7BE44
:104C5300F77EEF7DF79EF7BFEF7EDEDCF7BEF77DD5
:104C6300F79DFFFFF75DF75CFF59E6B4CE4FD68E95
:104C7300E6F1F735FF59FFBDFFFFF79EFFDFD69B38
:104C830094D49D15A5979515A5989D5695369D5633
:104C9300A576A597ADB7B5F8B5F8BE5ABE5AB5F81F
:104CA3009D569D369D56A597ADB8A598A597A5B8D1
:104CB300A5B8A5B8A5B8A5D89D358CB2AD76EF7EBD
:104CC300FFFFE73DE71DFFFFF7BFEFBFF7BEF7DFCE
:104CD300FFFFFFFFF7BFF79FF7BFFFDFFF9FFF7EDA
:104CE300FF9FFF7FF75EF77EF75EF75EF77EFF9F1E
:104CF300FF7EF77EF77EF79FF79FFFDFF7BEFFFE8E
:104D0300F79DEF1CF75DFF7CF75AF758DEB2C5CE6F
:104D1300D671FFD8FFFCF77CFFDFE71CB5D78C9378
:104D23008CB394F494D4ADD89D569D76A597ADD805
:104D3300A5B79D769D569D76A597B5F8B619A59707
:104D43008CD484B38CF59D56953695369D569D9798
:104D53009D979D56955695569D5594B2FF7FFF7F1F
:104D6300EF3EFFBFFF3FEEDCE77DF7FFEF7DFFDEAA
:104D7300F7DEF7DEE6DCFF9FF7BFFF9FFF3FFEFE98
:104D8300FEDEFEBDF6FDF71EF75FFF7FFF5FFF1E32
:104D9300F6FEF73FF77FF79FFFBFFFBFF79EF79E34
:104DA300F77EF77EFF7EFF9EF73CFFBDFFBCE6F874
:104DB300F7BBFFFDE73AFFFFF7BEDF1CA555847184
:104DC30074108CB384B3A5B7A5969D76A596ADD77D
:104DD300A5B7953584B384B395359D97A5B7953518
:104DE3007C727C9384D47C9384B384B38D159D7639
:104DF3009D979D7695358D35A555D6DBFFDFFF7FD6
:104E0300FF7FEEFEEE3BF6BCE77DF7FFF79DFFBEAF
:104E1300EFBDEF9EE6DCFF5EF77FF75EFEFEFE7DF5
:104E2300FE1CF5FBF67CFF1EFF3FFF5FFF3FFEDE30
:104E3300FEBEF6FFF75FEF7FFFBFFFDFFFBFFFBFE2
:104E4300FF9FFF9FFF7EFF7ED67AEF5DFFFFF79EFA
:104E5300EF7DEF7DFFFEE77CFFFFF7DFF7FFD71C5A
:104E63009D348CD39D7595149D769D559D96ADD798
:104E7300A5B78D147C937C9284D48D158D3584B322
:104E83006C31747284D37C92747274727CB384F4C4
:104E93008D358D158D148D14CEBAFFFFFF5EF6FE92
:104EA300F71EEEBDEE5CF6BCEF7DEFDEFFBEFF9EB0
:104EB300E73CE73DEEDCF6FEFF7FF6FEFE9DFE5C83
:104EC300FDFBEDDAEE3BF6DDFF3FFF3FFEFFFE9E0F
:104ED300F67DF6BEEF1FEF3EF79FFF9EFFBFFFBFBE
:104EE300FF9FFF7FF75EF75ED65AE71CD679FFFF79
:104EF300FFFFFFFEFFFEF7FEEFBEE77EFFFFF7FFBC
:104F0300EF9E9D559514A5B79D5695359D769D9716
:104F130095568CF47C937C938CF48CF48CF47C9376
:104F230074317C938CF484B374527431745284B3AB
:104F33008D148D158D159535F7BFFFDFFF3EFFBF30
:104F4300EEFEEEDEF67CE63BF77EF7BEFF9EF75DF8
:104F5300DEDCE6FCF6FEF6DEFF1EEE7CEE1BFE3C20
:104F6300FE3CF5FBE61BE65CFF5FFF1FFEBEF65D46
:104F7300EE3DEE7DEEDEEF1EF75EFF7EFF9FFF9FB1
:104F8300FF9FFF9FFF5EF75EEEFCF75EB555BDD753
:104F9300FFDFFFFFE75CF7DEEF9EFFFFE75DAD9608
:104FA300ADB7A5559D769D569D3695359535953668
:104FB30095168CF58CF58D1595358D158D1484B35B
:104FC3007C928CF495358CF47C727451745284B356
:104FD3009535955695569D76FFFFF75EFF1EFF3F6D
:104FE300CDFACDD9D599EE9DFF9FF7BFFF9FF6FC74
:104FF300E6BBEEDDFF1FFEBEF67CEE1BEDDAF5DB56
:10500300F5DBE5BAE5FAE65CFF3FFEFFF67DEE1C55
:10501300EE1CEE3DEEBEF6FFFF7FFF7FFF9FFF9F7F
:10502300FF9FFF9FFF9FFF9FE6DCF75EDEBB7BCF0B
:10503300DEDAFFFFFFFFF7BEF7FFFFFFDF3DC659D5
:105043008CD3A576BE5A9D769535951595369D5785
:105053009D779D779D779D7795568D158D158CF44E
:1050630084D495359D7695358CF47C9374517C72FC
:105073008CF495559D769D97FF9EFF9FF6FDE65B0D
:10508300DE3BD5DACD78FF7FFF9FFF9FFF5EEE7B90
:10509300EEBCF6BDFEDEFE7DEDDAF5DAF5DBF5BA44
:1050A300E579E599EE5CFF1FF6FFF69DEE3DEE1CFC
:1050B300EDFCF63DF69EFEFFFF3FF75EFF5EFF5FF2
:1050C300FF5FFF5FFF7FFF7FEEDDF73DFF7EC5D70D
:1050D3009CB2D699DEFADEFBF7FFDF3CADB6CEBA63
:1050E300B5F8A576A596ADB7951595369D57A5B890
:1050F300AE1AB61AADD9A5B89D979D769D979D9783
:105103009D97ADF8AE19A5D8A5B78D147C727452CE
:1051130084D39555A5B7ADF8EEFCFF9FFF7FFF1E27
:10512300F6FEDE1BF67DFF3FFF5EFF7FFEFDE5F92A
:10513300FEBDFEBDFE7DF5DBED79F59AF5BAED79A1
:10514300E579EDFBFEBEFF3FEE5CE61CEDFCF61CD5
:10515300F63DFE5EFE9EFEDFF6FEF71EF71EF71E11
:10516300F71EF71EF71EF71EFF7FF73EEF1DFFDF4B
:1051730094718C718C509D13D6DADF5C8CD273EFF3
:105183008CB295149D5595149D769D569D76A5B824
:10519300B61AB65BAE1AA5B8A5B8A5B7ADF8B639B9
:1051A300B639B65ABE5AAE19A5B795157C9384B3D2
:1051B3009535A5B7ADF8AE19F6FCFF5EFF1EDDFA17
:1051C3009C1393B1FF3FFF1FFF1EFF5EFEBCE598DC
:1051D300FEBDFE9DFDFBED59ED18F518ED18E53804
:1051E300EDBAFE9DFEDEFE9DE5DAE5BAEDBBF61DEA
:1051F300FE5EFE5EFE7EFEBFFEFEF71EF71EF71E80
:10520300F6FEF6FEF6DEEEDDF71EEEFDF75EF73D8B
:10521300EF5D9CF3B595AD749D33A594A5539D3374
:105223009D549D13CEDAADD7ADD7A57695359D5652
:10523300ADD8B63AAE19A5B89D779D96ADF8B61917
:10524300AE18AE18ADF89D97953584D37C938CF446
:10525300A597ADF8AE18ADF8FF3EE67BFFBFD5FAD4
:1052630038E62844FEDDFEFEFEBCFF1DBC32ED77B2
:10527300FE9CFD98DC95DC34DC14F4B7DC96ED5928
:10528300FE3CFE7DFEBEF63CEDDBFE1CFE3DFE1C41
:10529300F5FCFE3DFE7FFEDFFEFFF6FEF6DEF6FECC
:1052A300F6FEF6FEF6DEEEBDE67CF71EF73EFF7E6B
:1052B300FFBFE71BBDD6B595C657AD94BE36BE3608
:1052C300B616CED9CEB9E77DC6BAADF79D559D5575
:1052D300A597A5B7A5B7A5D89D96ADF8AE19A5D83E
:1052E300A5B7A5D8A5D8A5B7953584937C528CF4DA
:1052F300A597ADF8ADF8ADF8D5D8FF9FFF5FBD1604
:10530300202328238B6FFF7FFEBCC432D472FE9B05
:10531300FD97DC12D3D1DBF3F475EC76ECD7F5997A
:10532300F5FBFE5CFE7DED9AF59AFDDBFDFCFDFCD5
:10533300F5DCF5FCFE1DFE7EF69EFEFFFF1FFEDF85
:10534300F6DEFEDEFEFFF6DEF6FEF73EF71DEF3D70
:10535300FFBFFFDFDEDABDD6C657B5F5C677C67722
:10536300C698DF3AD71AE77CDF3BBE589D75953464
:105373009534953595559D969D76A5B7A5D89D975A
:105383009D769D97A5B79D97955684D484938D1547
:105393009D969D979D769D76DDD8FF9FFF5EDE3AB5
:1053A30028233064A432FF7EE514AB0CFD95FDF792
:1053B300DBCFD36EDB8FDB90F434E3D3F4D7FDB9CB
:1053C300FDFAFE7CFE1BED38F539F539F57AF5BBB0
:1053D300F5BBEDBBF5DCFE3DF67DFEFFFF1FFEDFFB
:1053E300F69EF6BEFEDFF6DEFF3FFF3FF71EEF1D24
:1053F300F77EFFFFF7BED699BE16BE36C677C698B0
:10540300DF3AE79CE79CE79CD6FABE58ADD69D757C
:105413009D5595559D76A5D7ADF8B619ADF89D97D1
:105423009D569D76A597A5979D7695158CF4951514
:1054330095358CF484B384B3D557E619FF9FFF7F6A
:1054430041061800FEDBF639B32CD3EFFDF6E40E6C
:10545300D30BEB8DE38EE38FE391DB92F4F6F599B7
:10546300FE5BFE7CED58F518FD19F4D8ECF8ED5A07
:10547300E55ADD39ED7AF61DFEBFFEDFFEFFFEFFC6
:10548300FEBFF69EF6BEFEDFFEFFF71EFF5FF75E72
:10549300EF1DF79EFFFFEF7DBDF6BE16C657C6573D
:1054A300D71ADF1BDF5CD6FAB637B617B617B618AE
:1054B300ADF7A5B6A5B6A5D7ADF8ADF8A5979535C3
:1054C3008D1595359D76A597A5979D56951595159B
:1054D3008CD47C7274317411B453C515FF9FFF5E75
:1054E3008B2E3863FF5DEDD6AACAF470FD32DB6BF9
:1054F300EB4BEB0BEB4BF38EE32FEC13FD37F5B8D4
:10550300FEBCFE3ADC54F4D7FCF8F497EC97E4F8CD
:10551300DD18D4F8E559F5FCFF1FFEBFF67EFEDF6C
:10552300FEFFF69EF69EFEFFFEFFF6DEFF5FFF7FA9
:10553300EF1DEF3DFFDFFFDFCE79AD95BE17B5D68B
:10554300BE37B5F7BE58ADD6ADD6B5F7B638BE59EA
:10555300B639ADD79D76955595358CF484937C52A9
:105563007C5284B395359D76A5B79D7695358D157B
:1055730084D47C727C527C52C4D58B4ED5F9FF5EA9
:10558300D556B431FF5CF616BB0BFC6FFC8FEBAB4F
:10559300F309EAC9FB6BDACADAEEF434FD37FDF935
:1055A300FE9BED78D413F496F415EC15E436E4B7CA
:1055B300E538E579F5DBFE5EFEDFEE3DE5DCEE3D4D
:1055C300F69FF67EF69EFEFFFF3FF6DEF6FEFF7FBA
:1055D300FF7EF77EFF9EFFBFDF1C8C71A5559D34B8
:1055E300A555A576B5F7ADB7ADD7ADD7B5F8B6190F
:1055F300B619ADD89D7695358CD4849374116BD040
:105603006BD074528CD495359D979D7695359515B1
:105613008CF48CF48CF48CF4D537514772EDFF7E07
:10562300EE3AF65AFF5CF616C30AFC6FFC4DEB89A3
:10563300EAA7FB08FB29D267E32EF413FD36FE3AF3
:10564300EDB8D473DC13EC14EBB4F3F5F477F5197C
:10565300F5BBFE3CFE7DFE9FFE9FEE3EDDBCDDBB4B
:10566300E61DF67EFEBFFEBFFF3FFF1FF6FEF71EE1
:10567300FF9FFFBFF77EF79EE73D52AB7C1084315F
:1056830094B3A556B5F8BE19ADD8ADB7A597ADB7C8
:10569300ADD8ADB89D7695158493743163AF5B6EC9
:1056A300638F741184B395159D769D569535953505
:1056B3009535953595569535CCD559674987FF7EF0
:1056C300FEFCE5D7FEB9FEB8CB4AFC8EF3EAE3480D
:1056D300F2E7FAE8E245F32BF3B0EC13FD57FE5B78
:1056E300D494B34FDBF3D351F435FCB7FD5AFDDB50
:1056F300FE5DFE9DFE7DFE5DFEBFFEBFEE3DDD9BBE
:10570300E5DCFEBFFF1FFEDFF6DEFF5FFF3FEEFDC2
:10571300FF7FFF9FF77EF7BFE75E29675B0D634E51
:1057230074119D15ADB7B5F9ADD8A5979D569D5686
:10573300A5779D768CF47C7363D0536F4AED42ED6D
:10574300532E6BF084B495359D779D76955695359C
:1057530095559D5695569535C47240825187FF5E87
:10576300FEDCEE18EE16FEF8C389FCCEEBA8DAC514
:10577300FB89DA45DA26E2EBE38FEC53FD57FE1A99
:10578300AA8CAA8CC371E475F558FDDBFE3CFE7D43
:10579300FEDEFEBEF63DEDFCEDDBFEBFFE9EEDFC48
:1057A300F65DFEDFFEDEFEDEFF3FFF1EF6FEF71EAA
:1057B300EF1EE6FDEF3EF79FE77F10E519464B0D21
:1057C3006BF16C319D97B639ADD89D369D56A57654
:1057D3009D3695357CB35B8F430E328C222B2A4B3F
:1057E30042EE5BD17C738CF59D77955695568D155E
:1057F300955695567CB384F4F618A38E82ABFEDCE3
:10580300FEFCE5F7FE78FE77C389EC6BFD0ECA63F9
:10581300C204DAA8EB0AEB4DFC93FCF5FD98E41205
:10582300B2CDDC13ECF6F557FDFAFE5CFE5CF63CFC
:10583300F65CF65CEDDBE5BADD9AFE7DFE9EFE7E50
:10584300FEBEFEDEFEDEFF3FFF1FFF3FFF7FFF7F4B
:10585300F73EEEFDE6FDE73EFFFF29A819672A099B
:105863005BAF7CB3955695369D77A597A5979D56C7
:105873008CD47C925B8E2A6A11E909C911A919EAB1
:105883002A4B42ED5BB1745384B484D48CF584D435
:10589300851484F46C517472FE39F65AC4B4FEDC78
:1058A300FEDCCD56FEFBFE369265B2E6FDB1EBEBB8
:1058B300EBCCEB8CE34CDB2DD3D0EC94FDB9C35094
:1058C300D3F2F517F558F599FE1BFE3BF63BF63C74
:1058D300F63CF63CF5FBEDBBE59AEE1CF65CFEBE32
:1058E300FEFFF6BEEE7DF6BEF6BDFF1FFF7FFF7F18
:1058F300F73FEEFEEEFEEF3FE75F192721A82A09E7
:105903004B0D63D07C9395569515ADB8A5988CF443
:105913007C525BAF328A11870147018811A919C9EB
:1059230019EA2A2B42EE5BB074537C938CF584D432
:105933007CD374725BAF63F0DD56FE9BEE3AFF1EC1
:10594300FEDDCD77FEFCDD5471A479A3E48EDC0C7F
:10595300FCF1DBCEDBCFDBF1E474ED37FD98CBF26A
:10596300FD99FD99F578FE3BFE1BF61BF63BF63BD6
:10597300EDFBEDDAED9AE559EDFBE5DBE5DAEE5CFF
:10598300FEFFFF1FF6DEEE7DEEBDEEBDF6FEFF3F32
:10599300FF1EEEDDF6FEFF7FD69D088431E9428CC3
:1059A300532E6BF174537C738CF5ADB8A5988CD4DE
:1059B30074324B0D19E8096711A911EA1A0B1A0A77
:1059C30019C919CA328C534F6C127C738D1584D448
:1059D3007CB36C52538F5BCFED98E598F65BFEFE7C
:1059E300FEFEEE3BFEFDBCB269853820C3EDB34B32
:1059F300CBEFECF4FDF9FE3BFEBDFE9DCC74C4136E
:105A0300FDDAFDB9FDDAFE5CFE7CF61BF63BF61B08
:105A1300E599E559ED59DD18E59ADD79DD79DDBACA
:105A2300EE5CFF1FFF1FE67CEEBDDE5BE67CFF3F07
:105A3300FF3FEE9DEEBDFF5FD67C18C63A2A322AA1
:105A430029E9534E7C947C738CD59D579D578CF5D7
:105A530074323AAB0967098711E919EA19EA19C9D6
:105A6300118919A92A4B42ED63D174738D157CD426
:105A73007C936C525BAF5BD0ED98D4D5F63BFE9D27
:105A8300FE7DFE9DFF1EE5B882AA3000FE58FF3C56
:105A9300FE18FE7BFE1AEDB9FE5CFF3FD4F6E55817
:105AA300FE1BFE1BFE3CF63BFE7CEDFAF63BFE3C8A
:105AB300EDBAFDDAFE3CFE1CFDFBF61CFE3CEE1BC4
:105AC300E5FBEE7CF6BDE63BDE3BD5FADE5CFF3F55
:105AD300FF7FF6DEF6DEFF7FA4B5000221274A8CA6
